{
  "contractName": "AnonSer",
  "abi": [
    {
      "anonymous": false,
      "inputs": [
        {
          "indexed": true,
          "internalType": "bytes",
          "name": "clientPubKey",
          "type": "bytes"
        },
        {
          "indexed": true,
          "internalType": "bytes32",
          "name": "provisionId",
          "type": "bytes32"
        },
        {
          "indexed": false,
          "internalType": "uint256",
          "name": "issueTime",
          "type": "uint256"
        },
        {
          "indexed": false,
          "internalType": "uint256",
          "name": "paymentDeadlineTime",
          "type": "uint256"
        },
        {
          "indexed": false,
          "internalType": "uint256",
          "name": "provisionDeadlineTime",
          "type": "uint256"
        },
        {
          "indexed": false,
          "internalType": "bool",
          "name": "paidWithCash",
          "type": "bool"
        }
      ],
      "name": "ProofOfDelivery",
      "type": "event"
    },
    {
      "anonymous": false,
      "inputs": [
        {
          "indexed": true,
          "internalType": "bytes",
          "name": "clientPubKey",
          "type": "bytes"
        },
        {
          "indexed": true,
          "internalType": "bytes32",
          "name": "provisionId",
          "type": "bytes32"
        },
        {
          "indexed": false,
          "internalType": "string",
          "name": "cid",
          "type": "string"
        },
        {
          "indexed": false,
          "internalType": "uint256",
          "name": "dealId",
          "type": "uint256"
        },
        {
          "indexed": false,
          "internalType": "string",
          "name": "minerId",
          "type": "string"
        }
      ],
      "name": "ProofOfProvision",
      "type": "event"
    },
    {
      "inputs": [
        {
          "internalType": "bytes",
          "name": "",
          "type": "bytes"
        },
        {
          "internalType": "bytes32",
          "name": "",
          "type": "bytes32"
        }
      ],
      "name": "provisions",
      "outputs": [
        {
          "internalType": "uint256",
          "name": "issueTime",
          "type": "uint256"
        },
        {
          "internalType": "uint256",
          "name": "paymentDeadlineTime",
          "type": "uint256"
        },
        {
          "internalType": "uint256",
          "name": "provisionDeadlineTime",
          "type": "uint256"
        },
        {
          "internalType": "bool",
          "name": "paidWithCash",
          "type": "bool"
        },
        {
          "internalType": "string",
          "name": "cid",
          "type": "string"
        },
        {
          "internalType": "bool",
          "name": "exist",
          "type": "bool"
        },
        {
          "internalType": "uint256",
          "name": "dealId",
          "type": "uint256"
        },
        {
          "internalType": "string",
          "name": "minerId",
          "type": "string"
        }
      ],
      "stateMutability": "view",
      "type": "function",
      "constant": true
    },
    {
      "inputs": [
        {
          "internalType": "bytes",
          "name": "clientPubKey",
          "type": "bytes"
        },
        {
          "internalType": "bytes32",
          "name": "provisionId",
          "type": "bytes32"
        },
        {
          "internalType": "bool",
          "name": "didPaidWithCash",
          "type": "bool"
        }
      ],
      "name": "proofOfDelivery",
      "outputs": [],
      "stateMutability": "nonpayable",
      "type": "function"
    },
    {
      "inputs": [
        {
          "internalType": "bytes",
          "name": "clientPubKey",
          "type": "bytes"
        },
        {
          "internalType": "bytes32",
          "name": "provisionId",
          "type": "bytes32"
        },
        {
          "internalType": "string",
          "name": "cid",
          "type": "string"
        },
        {
          "internalType": "uint256",
          "name": "dealId",
          "type": "uint256"
        },
        {
          "internalType": "string",
          "name": "minerId",
          "type": "string"
        }
      ],
      "name": "proofOfProvision",
      "outputs": [],
      "stateMutability": "nonpayable",
      "type": "function"
    },
    {
      "inputs": [
        {
          "internalType": "bytes",
          "name": "clientPubKey",
          "type": "bytes"
        },
        {
          "internalType": "bytes32",
          "name": "provisionId",
          "type": "bytes32"
        }
      ],
      "name": "getProvision",
      "outputs": [
        {
          "components": [
            {
              "internalType": "uint256",
              "name": "issueTime",
              "type": "uint256"
            },
            {
              "internalType": "uint256",
              "name": "paymentDeadlineTime",
              "type": "uint256"
            },
            {
              "internalType": "uint256",
              "name": "provisionDeadlineTime",
              "type": "uint256"
            },
            {
              "internalType": "bool",
              "name": "paidWithCash",
              "type": "bool"
            },
            {
              "internalType": "string",
              "name": "cid",
              "type": "string"
            },
            {
              "internalType": "bool",
              "name": "exist",
              "type": "bool"
            },
            {
              "internalType": "uint256",
              "name": "dealId",
              "type": "uint256"
            },
            {
              "internalType": "string",
              "name": "minerId",
              "type": "string"
            }
          ],
          "internalType": "struct AnonSer.Provision",
          "name": "",
          "type": "tuple"
        }
      ],
      "stateMutability": "view",
      "type": "function",
      "constant": true
    }
  ],
  "bytecode": "0x608060405234801561001057600080fd5b506112c2806100206000396000f3fe608060405234801561001057600080fd5b506004361061004c5760003560e01c8063763a69a4146100515780637925404b14610088578063d4835c09146100a4578063fff7b46b146100c0575b600080fd5b61006b600480360381019061006691906108e4565b6100f0565b60405161007f9897969594939291906109f3565b60405180910390f35b6100a2600480360381019061009d9190610aab565b610285565b005b6100be60048036038101906100b99190610be7565b610434565b005b6100da60048036038101906100d591906108e4565b61053e565b6040516100e79190610dd5565b60405180910390f35b600082805160208101820180518482526020830160208501208183528095505050505050602052806000526040600020600091509150508060000154908060010154908060020154908060030160009054906101000a900460ff169080600401805461015b90610e26565b80601f016020809104026020016040519081016040528092919081815260200182805461018790610e26565b80156101d45780601f106101a9576101008083540402835291602001916101d4565b820191906000526020600020905b8154815290600101906020018083116101b757829003601f168201915b5050505050908060050160009054906101000a900460ff169080600601549080600701805461020290610e26565b80601f016020809104026020016040519081016040528092919081815260200182805461022e90610e26565b801561027b5780601f106102505761010080835404028352916020019161027b565b820191906000526020600020905b81548152906001019060200180831161025e57829003601f168201915b5050505050905088565b600060405180610100016040528042815260200162015180426102a89190610e86565b8152602001620a8c00426102bc9190610e86565b8152602001831515815260200160405180602001604052806000815250815260200160011515815260200160008152602001604051806020016040528060008152508152509050806000856040516103149190610f01565b9081526020016040518091039020600085815260200190815260200160002060008201518160000155602082015181600101556040820151816002015560608201518160030160006101000a81548160ff021916908315150217905550608082015181600401908161038691906110c4565b5060a08201518160050160006101000a81548160ff02191690831515021790555060c0820151816006015560e08201518160070190816103c691906110c4565b5090505082846040516103d99190610f01565b60405180910390207f24c77ccdf1cef250c32aced30cdf8a27593d6e1c87bf60a6b37266ca55a5265d83600001518460200151856040015186606001516040516104269493929190611196565b60405180910390a350505050565b600080866040516104459190610f01565b9081526020016040518091039020600086815260200190815260200160002090508060050160009054906101000a900460ff166104b7576040517f08c379a00000000000000000000000000000000000000000000000000000000081526004016104ae90611227565b60405180910390fd5b838160040190816104c891906110c4565b50828160060181905550818160070190816104e391906110c4565b5084866040516104f39190610f01565b60405180910390207fd90ec65a0111c2b6f1affb8fcd114241afc06684d3bf7d5dcb9fff42f426321786868660405161052e93929190611247565b60405180910390a3505050505050565b61054661070b565b6000836040516105569190610f01565b90815260200160405180910390206000838152602001908152602001600020604051806101000160405290816000820154815260200160018201548152602001600282015481526020016003820160009054906101000a900460ff161515151581526020016004820180546105ca90610e26565b80601f01602080910402602001604051908101604052809291908181526020018280546105f690610e26565b80156106435780601f1061061857610100808354040283529160200191610643565b820191906000526020600020905b81548152906001019060200180831161062657829003601f168201915b505050505081526020016005820160009054906101000a900460ff161515151581526020016006820154815260200160078201805461068190610e26565b80601f01602080910402602001604051908101604052809291908181526020018280546106ad90610e26565b80156106fa5780601f106106cf576101008083540402835291602001916106fa565b820191906000526020600020905b8154815290600101906020018083116106dd57829003601f168201915b505050505081525050905092915050565b6040518061010001604052806000815260200160008152602001600081526020016000151581526020016060815260200160001515815260200160008152602001606081525090565b6000604051905090565b600080fd5b600080fd5b600080fd5b600080fd5b6000601f19601f8301169050919050565b7f4e487b7100000000000000000000000000000000000000000000000000000000600052604160045260246000fd5b6107bb82610772565b810181811067ffffffffffffffff821117156107da576107d9610783565b5b80604052505050565b60006107ed610754565b90506107f982826107b2565b919050565b600067ffffffffffffffff82111561081957610818610783565b5b61082282610772565b9050602081019050919050565b82818337600083830152505050565b600061085161084c846107fe565b6107e3565b90508281526020810184848401111561086d5761086c61076d565b5b61087884828561082f565b509392505050565b600082601f83011261089557610894610768565b5b81356108a584826020860161083e565b91505092915050565b6000819050919050565b6108c1816108ae565b81146108cc57600080fd5b50565b6000813590506108de816108b8565b92915050565b600080604083850312156108fb576108fa61075e565b5b600083013567ffffffffffffffff81111561091957610918610763565b5b61092585828601610880565b9250506020610936858286016108cf565b9150509250929050565b6000819050919050565b61095381610940565b82525050565b60008115159050919050565b61096e81610959565b82525050565b600081519050919050565b600082825260208201905092915050565b60005b838110156109ae578082015181840152602081019050610993565b60008484015250505050565b60006109c582610974565b6109cf818561097f565b93506109df818560208601610990565b6109e881610772565b840191505092915050565b600061010082019050610a09600083018b61094a565b610a16602083018a61094a565b610a23604083018961094a565b610a306060830188610965565b8181036080830152610a4281876109ba565b9050610a5160a0830186610965565b610a5e60c083018561094a565b81810360e0830152610a7081846109ba565b90509998505050505050505050565b610a8881610959565b8114610a9357600080fd5b50565b600081359050610aa581610a7f565b92915050565b600080600060608486031215610ac457610ac361075e565b5b600084013567ffffffffffffffff811115610ae257610ae1610763565b5b610aee86828701610880565b9350506020610aff868287016108cf565b9250506040610b1086828701610a96565b9150509250925092565b600067ffffffffffffffff821115610b3557610b34610783565b5b610b3e82610772565b9050602081019050919050565b6000610b5e610b5984610b1a565b6107e3565b905082815260208101848484011115610b7a57610b7961076d565b5b610b8584828561082f565b509392505050565b600082601f830112610ba257610ba1610768565b5b8135610bb2848260208601610b4b565b91505092915050565b610bc481610940565b8114610bcf57600080fd5b50565b600081359050610be181610bbb565b92915050565b600080600080600060a08688031215610c0357610c0261075e565b5b600086013567ffffffffffffffff811115610c2157610c20610763565b5b610c2d88828901610880565b9550506020610c3e888289016108cf565b945050604086013567ffffffffffffffff811115610c5f57610c5e610763565b5b610c6b88828901610b8d565b9350506060610c7c88828901610bd2565b925050608086013567ffffffffffffffff811115610c9d57610c9c610763565b5b610ca988828901610b8d565b9150509295509295909350565b610cbf81610940565b82525050565b610cce81610959565b82525050565b600082825260208201905092915050565b6000610cf082610974565b610cfa8185610cd4565b9350610d0a818560208601610990565b610d1381610772565b840191505092915050565b600061010083016000830151610d376000860182610cb6565b506020830151610d4a6020860182610cb6565b506040830151610d5d6040860182610cb6565b506060830151610d706060860182610cc5565b5060808301518482036080860152610d888282610ce5565b91505060a0830151610d9d60a0860182610cc5565b5060c0830151610db060c0860182610cb6565b5060e083015184820360e0860152610dc88282610ce5565b9150508091505092915050565b60006020820190508181036000830152610def8184610d1e565b905092915050565b7f4e487b7100000000000000000000000000000000000000000000000000000000600052602260045260246000fd5b60006002820490506001821680610e3e57607f821691505b602082108103610e5157610e50610df7565b5b50919050565b7f4e487b7100000000000000000000000000000000000000000000000000000000600052601160045260246000fd5b6000610e9182610940565b9150610e9c83610940565b9250828201905080821115610eb457610eb3610e57565b5b92915050565b600081519050919050565b600081905092915050565b6000610edb82610eba565b610ee58185610ec5565b9350610ef5818560208601610990565b80840191505092915050565b6000610f0d8284610ed0565b915081905092915050565b60008190508160005260206000209050919050565b60006020601f8301049050919050565b600082821b905092915050565b600060088302610f7a7fffffffffffffffffffffffffffffffffffffffffffffffffffffffffffffffff82610f3d565b610f848683610f3d565b95508019841693508086168417925050509392505050565b6000819050919050565b6000610fc1610fbc610fb784610940565b610f9c565b610940565b9050919050565b6000819050919050565b610fdb83610fa6565b610fef610fe782610fc8565b848454610f4a565b825550505050565b600090565b611004610ff7565b61100f818484610fd2565b505050565b5b8181101561103357611028600082610ffc565b600181019050611015565b5050565b601f8211156110785761104981610f18565b61105284610f2d565b81016020851015611061578190505b61107561106d85610f2d565b830182611014565b50505b505050565b600082821c905092915050565b600061109b6000198460080261107d565b1980831691505092915050565b60006110b4838361108a565b9150826002028217905092915050565b6110cd82610974565b67ffffffffffffffff8111156110e6576110e5610783565b5b6110f08254610e26565b6110fb828285611037565b600060209050601f83116001811461112e576000841561111c578287015190505b61112685826110a8565b86555061118e565b601f19841661113c86610f18565b60005b828110156111645784890151825560018201915060208501945060208101905061113f565b86831015611181578489015161117d601f89168261108a565b8355505b6001600288020188555050505b505050505050565b60006080820190506111ab600083018761094a565b6111b8602083018661094a565b6111c5604083018561094a565b6111d26060830184610965565b95945050505050565b7f50726f766973696f6e20646f6573206e6f742065786973740000000000000000600082015250565b600061121160188361097f565b915061121c826111db565b602082019050919050565b6000602082019050818103600083015261124081611204565b9050919050565b6000606082019050818103600083015261126181866109ba565b9050611270602083018561094a565b818103604083015261128281846109ba565b905094935050505056fea26469706673582212207192d889e0e3f6856e4cff66e4fc20b001c8d731ed4ede5c6b3c24c8542a02f264736f6c63430008110033",
  "immutableReferences": {},
  "source": "// SPDX-License-Identifier: MIT\npragma solidity >=0.4.22 <0.9.0;\n\ncontract AnonSer {\n    struct Provision {\n        uint256 issueTime;\n        uint256 paymentDeadlineTime;\n        uint256 provisionDeadlineTime;\n        bool paidWithCash;\n        string cid;\n        bool exist;\n        uint256 dealId;\n        string minerId;\n    }\n\n    mapping(bytes => mapping(bytes32 => Provision)) public provisions;\n\n    event ProofOfDelivery(\n        bytes indexed clientPubKey,\n        bytes32 indexed provisionId,\n        uint256 issueTime,\n        uint256 paymentDeadlineTime,\n        uint256 provisionDeadlineTime,\n        bool paidWithCash\n    );\n\n    // Should the provisionId be of service provider and a clinet?\n    // We don't want to allow a client to mess with someone's service\n    function proofOfDelivery(\n        bytes memory clientPubKey,\n        bytes32 provisionId,\n        bool didPaidWithCash\n    ) public {\n        Provision memory provision = Provision({\n            exist: true,\n            issueTime: block.timestamp,\n            paymentDeadlineTime: block.timestamp + 1 days,\n            provisionDeadlineTime: block.timestamp + 8 days,\n            paidWithCash: didPaidWithCash,\n            dealId: 0,\n            cid: \"\",\n            minerId: \"\"\n            // should we put here a client's signature?\n        });\n        provisions[clientPubKey][provisionId] = provision;\n        emit ProofOfDelivery(\n            clientPubKey,\n            provisionId,\n            provision.issueTime,\n            provision.paymentDeadlineTime,\n            provision.provisionDeadlineTime,\n            provision.paidWithCash\n        );\n    }\n\n    event ProofOfProvision(\n        bytes indexed clientPubKey,\n        bytes32 indexed provisionId,\n        string cid,\n        uint256 dealId,\n        string minerId\n    );\n\n    function proofOfProvision(\n        bytes memory clientPubKey,\n        bytes32 provisionId,\n        string memory cid,\n        uint256 dealId,\n        string memory minerId\n    ) public {\n        Provision storage provision = provisions[clientPubKey][provisionId];\n        if (!provision.exist) {\n            revert(\"Provision does not exist\");\n        }\n\n        provision.cid = cid;\n        provision.dealId = dealId;\n        provision.minerId = minerId;\n        emit ProofOfProvision(clientPubKey, provisionId, cid, dealId, minerId);\n    }\n\n    function getProvision(bytes memory clientPubKey, bytes32 provisionId)\n        public\n        view\n        returns (Provision memory)\n    {\n        return provisions[clientPubKey][provisionId];\n    }\n}\n",
  "sourcePath": "/Users/stanbar/code/anonser/smartcontracts/contracts/AnonSer.sol",
  "compiler": {
    "name": "solc",
    "version": "0.8.17+commit.8df45f5f.Emscripten.clang"
  },
  "schemaVersion": "3.4.10",
  "updatedAt": "2022-11-25T17:35:04.424Z",
  "networkType": "ethereum",
  "devdoc": {
    "kind": "dev",
    "methods": {},
    "version": 1
  },
  "userdoc": {
    "kind": "user",
    "methods": {},
    "version": 1
  }
}