{
  "contractName": "AnonSer",
  "abi": [
    {
      "anonymous": false,
      "inputs": [
        {
          "indexed": true,
          "internalType": "address",
          "name": "clientPubKey",
          "type": "address"
        },
        {
          "indexed": true,
          "internalType": "bytes32",
          "name": "provisionId",
          "type": "bytes32"
        }
      ],
      "name": "ProofOfDelivery",
      "type": "event"
    },
    {
      "anonymous": false,
      "inputs": [
        {
          "indexed": true,
          "internalType": "address",
          "name": "clientPubKey",
          "type": "address"
        },
        {
          "indexed": true,
          "internalType": "bytes32",
          "name": "provisionId",
          "type": "bytes32"
        },
        {
          "indexed": false,
          "internalType": "string",
          "name": "cid",
          "type": "string"
        },
        {
          "indexed": false,
          "internalType": "string",
          "name": "dealId",
          "type": "string"
        }
      ],
      "name": "ProofOfProvision",
      "type": "event"
    },
    {
      "inputs": [
        {
          "internalType": "address",
          "name": "clientPubKey",
          "type": "address"
        },
        {
          "internalType": "bytes32",
          "name": "provisionId",
          "type": "bytes32"
        },
        {
          "internalType": "bool",
          "name": "didPaidWithCash",
          "type": "bool"
        }
      ],
      "name": "proofOfDelivery",
      "outputs": [],
      "stateMutability": "nonpayable",
      "type": "function"
    },
    {
      "inputs": [
        {
          "internalType": "address",
          "name": "clientPubKey",
          "type": "address"
        },
        {
          "internalType": "bytes32",
          "name": "provisionId",
          "type": "bytes32"
        },
        {
          "internalType": "string",
          "name": "cid",
          "type": "string"
        },
        {
          "internalType": "string",
          "name": "dealId",
          "type": "string"
        }
      ],
      "name": "proofOfProvision",
      "outputs": [],
      "stateMutability": "nonpayable",
      "type": "function"
    },
    {
      "inputs": [
        {
          "internalType": "address",
          "name": "clientPubKey",
          "type": "address"
        },
        {
          "internalType": "bytes32",
          "name": "provisionId",
          "type": "bytes32"
        }
      ],
      "name": "getProvision",
      "outputs": [
        {
          "components": [
            {
              "internalType": "uint256",
              "name": "issueTime",
              "type": "uint256"
            },
            {
              "internalType": "uint256",
              "name": "paymentDeadlineTime",
              "type": "uint256"
            },
            {
              "internalType": "uint256",
              "name": "provisionDeadlineTime",
              "type": "uint256"
            },
            {
              "internalType": "bool",
              "name": "paidWithCash",
              "type": "bool"
            },
            {
              "internalType": "string",
              "name": "dealId",
              "type": "string"
            },
            {
              "internalType": "string",
              "name": "cid",
              "type": "string"
            },
            {
              "internalType": "bool",
              "name": "exist",
              "type": "bool"
            }
          ],
          "internalType": "struct AnonSer.Provision",
          "name": "",
          "type": "tuple"
        }
      ],
      "stateMutability": "view",
      "type": "function",
      "constant": true
    }
  ],
  "bytecode": "0x608060405234801561001057600080fd5b50610eb0806100206000396000f3fe608060405234801561001057600080fd5b50600436106100415760003560e01c806327593e6014610046578063421aaaf614610062578063849a2ce214610092575b600080fd5b610060600480360381019061005b9190610776565b6100ae565b005b61007c60048036038101906100779190610815565b6101ce565b60405161008991906109ab565b60405180910390f35b6100ac60048036038101906100a791906109f9565b6103b0565b005b60008060008673ffffffffffffffffffffffffffffffffffffffff1673ffffffffffffffffffffffffffffffffffffffff168152602001908152602001600020600085815260200190815260200160002090508060060160009054906101000a900460ff16610152576040517f08c379a000000000000000000000000000000000000000000000000000000000815260040161014990610aa9565b60405180910390fd5b828160050190816101639190610cd5565b50818160040190816101759190610cd5565b50838573ffffffffffffffffffffffffffffffffffffffff167fbf3d40190fe379725f8f24a3c3f1da3cc7b2266057622103e96c7f60666c419285856040516101bf929190610de0565b60405180910390a35050505050565b6101d6610547565b6000808473ffffffffffffffffffffffffffffffffffffffff1673ffffffffffffffffffffffffffffffffffffffff16815260200190815260200160002060008381526020019081526020016000206040518060e00160405290816000820154815260200160018201548152602001600282015481526020016003820160009054906101000a900460ff1615151515815260200160048201805461027990610af8565b80601f01602080910402602001604051908101604052809291908181526020018280546102a590610af8565b80156102f25780601f106102c7576101008083540402835291602001916102f2565b820191906000526020600020905b8154815290600101906020018083116102d557829003601f168201915b5050505050815260200160058201805461030b90610af8565b80601f016020809104026020016040519081016040528092919081815260200182805461033790610af8565b80156103845780601f1061035957610100808354040283529160200191610384565b820191906000526020600020905b81548152906001019060200180831161036757829003601f168201915b505050505081526020016006820160009054906101000a900460ff161515151581525050905092915050565b6040518060e0016040528042815260200162015180426103d09190610e46565b8152602001620a8c00426103e49190610e46565b81526020018215158152602001604051806020016040528060008152508152602001604051806020016040528060008152508152602001600115158152506000808573ffffffffffffffffffffffffffffffffffffffff1673ffffffffffffffffffffffffffffffffffffffff168152602001908152602001600020600084815260200190815260200160002060008201518160000155602082015181600101556040820151816002015560608201518160030160006101000a81548160ff02191690831515021790555060808201518160040190816104c49190610cd5565b5060a08201518160050190816104da9190610cd5565b5060c08201518160060160006101000a81548160ff021916908315150217905550905050818373ffffffffffffffffffffffffffffffffffffffff167f7ae8a5a52e498709aa7dd0e6ed944f9a6b01239e0de0bd009ae25e03689fadba60405160405180910390a3505050565b6040518060e0016040528060008152602001600081526020016000815260200160001515815260200160608152602001606081526020016000151581525090565b6000604051905090565b600080fd5b600080fd5b600073ffffffffffffffffffffffffffffffffffffffff82169050919050565b60006105c78261059c565b9050919050565b6105d7816105bc565b81146105e257600080fd5b50565b6000813590506105f4816105ce565b92915050565b6000819050919050565b61060d816105fa565b811461061857600080fd5b50565b60008135905061062a81610604565b92915050565b600080fd5b600080fd5b6000601f19601f8301169050919050565b7f4e487b7100000000000000000000000000000000000000000000000000000000600052604160045260246000fd5b6106838261063a565b810181811067ffffffffffffffff821117156106a2576106a161064b565b5b80604052505050565b60006106b5610588565b90506106c1828261067a565b919050565b600067ffffffffffffffff8211156106e1576106e061064b565b5b6106ea8261063a565b9050602081019050919050565b82818337600083830152505050565b6000610719610714846106c6565b6106ab565b90508281526020810184848401111561073557610734610635565b5b6107408482856106f7565b509392505050565b600082601f83011261075d5761075c610630565b5b813561076d848260208601610706565b91505092915050565b600080600080608085870312156107905761078f610592565b5b600061079e878288016105e5565b94505060206107af8782880161061b565b935050604085013567ffffffffffffffff8111156107d0576107cf610597565b5b6107dc87828801610748565b925050606085013567ffffffffffffffff8111156107fd576107fc610597565b5b61080987828801610748565b91505092959194509250565b6000806040838503121561082c5761082b610592565b5b600061083a858286016105e5565b925050602061084b8582860161061b565b9150509250929050565b6000819050919050565b61086881610855565b82525050565b60008115159050919050565b6108838161086e565b82525050565b600081519050919050565b600082825260208201905092915050565b60005b838110156108c35780820151818401526020810190506108a8565b60008484015250505050565b60006108da82610889565b6108e48185610894565b93506108f48185602086016108a5565b6108fd8161063a565b840191505092915050565b600060e083016000830151610920600086018261085f565b506020830151610933602086018261085f565b506040830151610946604086018261085f565b506060830151610959606086018261087a565b506080830151848203608086015261097182826108cf565b91505060a083015184820360a086015261098b82826108cf565b91505060c08301516109a060c086018261087a565b508091505092915050565b600060208201905081810360008301526109c58184610908565b905092915050565b6109d68161086e565b81146109e157600080fd5b50565b6000813590506109f3816109cd565b92915050565b600080600060608486031215610a1257610a11610592565b5b6000610a20868287016105e5565b9350506020610a318682870161061b565b9250506040610a42868287016109e4565b9150509250925092565b600082825260208201905092915050565b7f50726f766973696f6e20646f6573206e6f742065786973740000000000000000600082015250565b6000610a93601883610a4c565b9150610a9e82610a5d565b602082019050919050565b60006020820190508181036000830152610ac281610a86565b9050919050565b7f4e487b7100000000000000000000000000000000000000000000000000000000600052602260045260246000fd5b60006002820490506001821680610b1057607f821691505b602082108103610b2357610b22610ac9565b5b50919050565b60008190508160005260206000209050919050565b60006020601f8301049050919050565b600082821b905092915050565b600060088302610b8b7fffffffffffffffffffffffffffffffffffffffffffffffffffffffffffffffff82610b4e565b610b958683610b4e565b95508019841693508086168417925050509392505050565b6000819050919050565b6000610bd2610bcd610bc884610855565b610bad565b610855565b9050919050565b6000819050919050565b610bec83610bb7565b610c00610bf882610bd9565b848454610b5b565b825550505050565b600090565b610c15610c08565b610c20818484610be3565b505050565b5b81811015610c4457610c39600082610c0d565b600181019050610c26565b5050565b601f821115610c8957610c5a81610b29565b610c6384610b3e565b81016020851015610c72578190505b610c86610c7e85610b3e565b830182610c25565b50505b505050565b600082821c905092915050565b6000610cac60001984600802610c8e565b1980831691505092915050565b6000610cc58383610c9b565b9150826002028217905092915050565b610cde82610889565b67ffffffffffffffff811115610cf757610cf661064b565b5b610d018254610af8565b610d0c828285610c48565b600060209050601f831160018114610d3f5760008415610d2d578287015190505b610d378582610cb9565b865550610d9f565b601f198416610d4d86610b29565b60005b82811015610d7557848901518255600182019150602085019450602081019050610d50565b86831015610d925784890151610d8e601f891682610c9b565b8355505b6001600288020188555050505b505050505050565b6000610db282610889565b610dbc8185610a4c565b9350610dcc8185602086016108a5565b610dd58161063a565b840191505092915050565b60006040820190508181036000830152610dfa8185610da7565b90508181036020830152610e0e8184610da7565b90509392505050565b7f4e487b7100000000000000000000000000000000000000000000000000000000600052601160045260246000fd5b6000610e5182610855565b9150610e5c83610855565b9250828201905080821115610e7457610e73610e17565b5b9291505056fea2646970667358221220abcf1c57bf8ffb509f45c942f721b045366664758497e6437b5e977a3561d2b164736f6c63430008110033",
  "immutableReferences": {},
  "source": "// SPDX-License-Identifier: MIT\npragma solidity >=0.4.22 <0.9.0;\n\ncontract AnonSer {\n\n  struct Provision {\n    uint256 issueTime;\n    uint256 paymentDeadlineTime;\n    uint256 provisionDeadlineTime;\n    bool paidWithCash;\n    string dealId;\n    string cid;\n    bool exist;\n  }\n\n\tmapping (address => mapping (bytes32 => Provision)) provisions;\n\n  event ProofOfDelivery(address indexed clientPubKey, \n                        bytes32 indexed provisionId);\n\n  // Should the provisionId be of service provider and a clinet?\n  // We don't want to allow a client to mess with someone's service\n  function proofOfDelivery(address clientPubKey, bytes32 provisionId, bool didPaidWithCash) public {\n    provisions[clientPubKey][provisionId] = Provision({\n      exist: true,\n      issueTime: block.timestamp,\n      paymentDeadlineTime: block.timestamp + 1 days,\n      provisionDeadlineTime: block.timestamp + 8 days,\n      paidWithCash: didPaidWithCash,\n      dealId: \"\",\n      cid: \"\"\n      // should we put here a client's signature?\n    });\n    emit ProofOfDelivery(clientPubKey, provisionId);\n  }\n\n  event ProofOfProvision(address indexed clientPubKey, \n                        bytes32 indexed provisionId,\n                        string cid,\n                        string dealId\n                        );\n\n  function proofOfProvision(address clientPubKey, bytes32 provisionId, string memory cid, string memory dealId) public {\n    Provision storage provision = provisions[clientPubKey][provisionId];\n    if (!provision.exist) {\n      revert(\"Provision does not exist\");\n    }\n\n    provision.cid = cid;\n    provision.dealId = dealId;\n    emit ProofOfProvision(clientPubKey, provisionId, cid, dealId);\n  }\n\n  function getProvision(address clientPubKey, bytes32 provisionId) public view returns (Provision memory) {\n    return provisions[clientPubKey][provisionId];\n  }\n}\n",
  "sourcePath": "/Users/stanbar/code/anonser/smartcontracts/contracts/AnonSer.sol",
  "compiler": {
    "name": "solc",
    "version": "0.8.17+commit.8df45f5f.Emscripten.clang"
  },
  "schemaVersion": "3.4.10",
  "updatedAt": "2022-11-19T13:49:58.652Z",
  "networkType": "ethereum",
  "devdoc": {
    "kind": "dev",
    "methods": {},
    "version": 1
  },
  "userdoc": {
    "kind": "user",
    "methods": {},
    "version": 1
  }
}