{
  "contractName": "AnonSer",
  "abi": [
    {
      "anonymous": false,
      "inputs": [
        {
          "indexed": true,
          "internalType": "bytes",
          "name": "clientPubKey",
          "type": "bytes"
        },
        {
          "indexed": true,
          "internalType": "bytes32",
          "name": "provisionId",
          "type": "bytes32"
        },
        {
          "indexed": false,
          "internalType": "uint256",
          "name": "issueTime",
          "type": "uint256"
        },
        {
          "indexed": false,
          "internalType": "uint256",
          "name": "paymentDeadlineTime",
          "type": "uint256"
        },
        {
          "indexed": false,
          "internalType": "uint256",
          "name": "provisionDeadlineTime",
          "type": "uint256"
        },
        {
          "indexed": false,
          "internalType": "bool",
          "name": "paidWithCash",
          "type": "bool"
        }
      ],
      "name": "ProofOfDelivery",
      "type": "event"
    },
    {
      "anonymous": false,
      "inputs": [
        {
          "indexed": true,
          "internalType": "bytes",
          "name": "clientPubKey",
          "type": "bytes"
        },
        {
          "indexed": true,
          "internalType": "bytes32",
          "name": "provisionId",
          "type": "bytes32"
        },
        {
          "indexed": false,
          "internalType": "string",
          "name": "cid",
          "type": "string"
        },
        {
          "indexed": false,
          "internalType": "string",
          "name": "dealId",
          "type": "string"
        }
      ],
      "name": "ProofOfProvision",
      "type": "event"
    },
    {
      "inputs": [
        {
          "internalType": "bytes",
          "name": "",
          "type": "bytes"
        },
        {
          "internalType": "bytes32",
          "name": "",
          "type": "bytes32"
        }
      ],
      "name": "provisions",
      "outputs": [
        {
          "internalType": "uint256",
          "name": "issueTime",
          "type": "uint256"
        },
        {
          "internalType": "uint256",
          "name": "paymentDeadlineTime",
          "type": "uint256"
        },
        {
          "internalType": "uint256",
          "name": "provisionDeadlineTime",
          "type": "uint256"
        },
        {
          "internalType": "bool",
          "name": "paidWithCash",
          "type": "bool"
        },
        {
          "internalType": "string",
          "name": "dealId",
          "type": "string"
        },
        {
          "internalType": "string",
          "name": "cid",
          "type": "string"
        },
        {
          "internalType": "bool",
          "name": "exist",
          "type": "bool"
        }
      ],
      "stateMutability": "view",
      "type": "function",
      "constant": true
    },
    {
      "inputs": [
        {
          "internalType": "bytes",
          "name": "clientPubKey",
          "type": "bytes"
        },
        {
          "internalType": "bytes32",
          "name": "provisionId",
          "type": "bytes32"
        },
        {
          "internalType": "bool",
          "name": "didPaidWithCash",
          "type": "bool"
        }
      ],
      "name": "proofOfDelivery",
      "outputs": [],
      "stateMutability": "nonpayable",
      "type": "function"
    },
    {
      "inputs": [
        {
          "internalType": "bytes",
          "name": "clientPubKey",
          "type": "bytes"
        },
        {
          "internalType": "bytes32",
          "name": "provisionId",
          "type": "bytes32"
        },
        {
          "internalType": "string",
          "name": "cid",
          "type": "string"
        },
        {
          "internalType": "string",
          "name": "dealId",
          "type": "string"
        }
      ],
      "name": "proofOfProvision",
      "outputs": [],
      "stateMutability": "nonpayable",
      "type": "function"
    },
    {
      "inputs": [
        {
          "internalType": "bytes",
          "name": "clientPubKey",
          "type": "bytes"
        },
        {
          "internalType": "bytes32",
          "name": "provisionId",
          "type": "bytes32"
        }
      ],
      "name": "getProvision",
      "outputs": [
        {
          "components": [
            {
              "internalType": "uint256",
              "name": "issueTime",
              "type": "uint256"
            },
            {
              "internalType": "uint256",
              "name": "paymentDeadlineTime",
              "type": "uint256"
            },
            {
              "internalType": "uint256",
              "name": "provisionDeadlineTime",
              "type": "uint256"
            },
            {
              "internalType": "bool",
              "name": "paidWithCash",
              "type": "bool"
            },
            {
              "internalType": "string",
              "name": "dealId",
              "type": "string"
            },
            {
              "internalType": "string",
              "name": "cid",
              "type": "string"
            },
            {
              "internalType": "bool",
              "name": "exist",
              "type": "bool"
            }
          ],
          "internalType": "struct AnonSer.Provision",
          "name": "",
          "type": "tuple"
        }
      ],
      "stateMutability": "view",
      "type": "function",
      "constant": true
    }
  ],
  "bytecode": "0x608060405234801561001057600080fd5b50611219806100206000396000f3fe608060405234801561001057600080fd5b506004361061004c5760003560e01c80631806073d14610051578063763a69a41461006d5780637925404b146100a3578063fff7b46b146100bf575b600080fd5b61006b6004803603810190610066919061094d565b6100ef565b005b61008760048036038101906100829190610a08565b6101ed565b60405161009a9796959493929190610b17565b60405180910390f35b6100bd60048036038101906100b89190610bc0565b61037c565b005b6100d960048036038101906100d49190610a08565b610519565b6040516100e69190610d3a565b60405180910390f35b600080856040516101009190610da3565b9081526020016040518091039020600085815260200190815260200160002090508060060160009054906101000a900460ff16610172576040517f08c379a000000000000000000000000000000000000000000000000000000000815260040161016990610e06565b60405180910390fd5b828160050190816101839190611032565b50818160040190816101959190611032565b5083856040516101a59190610da3565b60405180910390207fd74fd8e501852c4bad60085e7d26bf28af1f7a267702f9ba8ed7e35c27305b6b85856040516101de929190611104565b60405180910390a35050505050565b600082805160208101820180518482526020830160208501208183528095505050505050602052806000526040600020600091509150508060000154908060010154908060020154908060030160009054906101000a900460ff169080600401805461025890610e55565b80601f016020809104026020016040519081016040528092919081815260200182805461028490610e55565b80156102d15780601f106102a6576101008083540402835291602001916102d1565b820191906000526020600020905b8154815290600101906020018083116102b457829003601f168201915b5050505050908060050180546102e690610e55565b80601f016020809104026020016040519081016040528092919081815260200182805461031290610e55565b801561035f5780601f106103345761010080835404028352916020019161035f565b820191906000526020600020905b81548152906001019060200180831161034257829003601f168201915b5050505050908060060160009054906101000a900460ff16905087565b60006040518060e00160405280428152602001620151804261039e919061116a565b8152602001620a8c00426103b2919061116a565b81526020018315158152602001604051806020016040528060008152508152602001604051806020016040528060008152508152602001600115158152509050806000856040516104039190610da3565b9081526020016040518091039020600085815260200190815260200160002060008201518160000155602082015181600101556040820151816002015560608201518160030160006101000a81548160ff02191690831515021790555060808201518160040190816104759190611032565b5060a082015181600501908161048b9190611032565b5060c08201518160060160006101000a81548160ff02191690831515021790555090505082846040516104be9190610da3565b60405180910390207f24c77ccdf1cef250c32aced30cdf8a27593d6e1c87bf60a6b37266ca55a5265d836000015184602001518560400151866060015160405161050b949392919061119e565b60405180910390a350505050565b6105216106db565b6000836040516105319190610da3565b908152602001604051809103902060008381526020019081526020016000206040518060e00160405290816000820154815260200160018201548152602001600282015481526020016003820160009054906101000a900460ff161515151581526020016004820180546105a490610e55565b80601f01602080910402602001604051908101604052809291908181526020018280546105d090610e55565b801561061d5780601f106105f25761010080835404028352916020019161061d565b820191906000526020600020905b81548152906001019060200180831161060057829003601f168201915b5050505050815260200160058201805461063690610e55565b80601f016020809104026020016040519081016040528092919081815260200182805461066290610e55565b80156106af5780601f10610684576101008083540402835291602001916106af565b820191906000526020600020905b81548152906001019060200180831161069257829003601f168201915b505050505081526020016006820160009054906101000a900460ff161515151581525050905092915050565b6040518060e0016040528060008152602001600081526020016000815260200160001515815260200160608152602001606081526020016000151581525090565b6000604051905090565b600080fd5b600080fd5b600080fd5b600080fd5b6000601f19601f8301169050919050565b7f4e487b7100000000000000000000000000000000000000000000000000000000600052604160045260246000fd5b6107838261073a565b810181811067ffffffffffffffff821117156107a2576107a161074b565b5b80604052505050565b60006107b561071c565b90506107c1828261077a565b919050565b600067ffffffffffffffff8211156107e1576107e061074b565b5b6107ea8261073a565b9050602081019050919050565b82818337600083830152505050565b6000610819610814846107c6565b6107ab565b90508281526020810184848401111561083557610834610735565b5b6108408482856107f7565b509392505050565b600082601f83011261085d5761085c610730565b5b813561086d848260208601610806565b91505092915050565b6000819050919050565b61088981610876565b811461089457600080fd5b50565b6000813590506108a681610880565b92915050565b600067ffffffffffffffff8211156108c7576108c661074b565b5b6108d08261073a565b9050602081019050919050565b60006108f06108eb846108ac565b6107ab565b90508281526020810184848401111561090c5761090b610735565b5b6109178482856107f7565b509392505050565b600082601f83011261093457610933610730565b5b81356109448482602086016108dd565b91505092915050565b6000806000806080858703121561096757610966610726565b5b600085013567ffffffffffffffff8111156109855761098461072b565b5b61099187828801610848565b94505060206109a287828801610897565b935050604085013567ffffffffffffffff8111156109c3576109c261072b565b5b6109cf8782880161091f565b925050606085013567ffffffffffffffff8111156109f0576109ef61072b565b5b6109fc8782880161091f565b91505092959194509250565b60008060408385031215610a1f57610a1e610726565b5b600083013567ffffffffffffffff811115610a3d57610a3c61072b565b5b610a4985828601610848565b9250506020610a5a85828601610897565b9150509250929050565b6000819050919050565b610a7781610a64565b82525050565b60008115159050919050565b610a9281610a7d565b82525050565b600081519050919050565b600082825260208201905092915050565b60005b83811015610ad2578082015181840152602081019050610ab7565b60008484015250505050565b6000610ae982610a98565b610af38185610aa3565b9350610b03818560208601610ab4565b610b0c8161073a565b840191505092915050565b600060e082019050610b2c600083018a610a6e565b610b396020830189610a6e565b610b466040830188610a6e565b610b536060830187610a89565b8181036080830152610b658186610ade565b905081810360a0830152610b798185610ade565b9050610b8860c0830184610a89565b98975050505050505050565b610b9d81610a7d565b8114610ba857600080fd5b50565b600081359050610bba81610b94565b92915050565b600080600060608486031215610bd957610bd8610726565b5b600084013567ffffffffffffffff811115610bf757610bf661072b565b5b610c0386828701610848565b9350506020610c1486828701610897565b9250506040610c2586828701610bab565b9150509250925092565b610c3881610a64565b82525050565b610c4781610a7d565b82525050565b600082825260208201905092915050565b6000610c6982610a98565b610c738185610c4d565b9350610c83818560208601610ab4565b610c8c8161073a565b840191505092915050565b600060e083016000830151610caf6000860182610c2f565b506020830151610cc26020860182610c2f565b506040830151610cd56040860182610c2f565b506060830151610ce86060860182610c3e565b5060808301518482036080860152610d008282610c5e565b91505060a083015184820360a0860152610d1a8282610c5e565b91505060c0830151610d2f60c0860182610c3e565b508091505092915050565b60006020820190508181036000830152610d548184610c97565b905092915050565b600081519050919050565b600081905092915050565b6000610d7d82610d5c565b610d878185610d67565b9350610d97818560208601610ab4565b80840191505092915050565b6000610daf8284610d72565b915081905092915050565b7f50726f766973696f6e20646f6573206e6f742065786973740000000000000000600082015250565b6000610df0601883610aa3565b9150610dfb82610dba565b602082019050919050565b60006020820190508181036000830152610e1f81610de3565b9050919050565b7f4e487b7100000000000000000000000000000000000000000000000000000000600052602260045260246000fd5b60006002820490506001821680610e6d57607f821691505b602082108103610e8057610e7f610e26565b5b50919050565b60008190508160005260206000209050919050565b60006020601f8301049050919050565b600082821b905092915050565b600060088302610ee87fffffffffffffffffffffffffffffffffffffffffffffffffffffffffffffffff82610eab565b610ef28683610eab565b95508019841693508086168417925050509392505050565b6000819050919050565b6000610f2f610f2a610f2584610a64565b610f0a565b610a64565b9050919050565b6000819050919050565b610f4983610f14565b610f5d610f5582610f36565b848454610eb8565b825550505050565b600090565b610f72610f65565b610f7d818484610f40565b505050565b5b81811015610fa157610f96600082610f6a565b600181019050610f83565b5050565b601f821115610fe657610fb781610e86565b610fc084610e9b565b81016020851015610fcf578190505b610fe3610fdb85610e9b565b830182610f82565b50505b505050565b600082821c905092915050565b600061100960001984600802610feb565b1980831691505092915050565b60006110228383610ff8565b9150826002028217905092915050565b61103b82610a98565b67ffffffffffffffff8111156110545761105361074b565b5b61105e8254610e55565b611069828285610fa5565b600060209050601f83116001811461109c576000841561108a578287015190505b6110948582611016565b8655506110fc565b601f1984166110aa86610e86565b60005b828110156110d2578489015182556001820191506020850194506020810190506110ad565b868310156110ef57848901516110eb601f891682610ff8565b8355505b6001600288020188555050505b505050505050565b6000604082019050818103600083015261111e8185610ade565b905081810360208301526111328184610ade565b90509392505050565b7f4e487b7100000000000000000000000000000000000000000000000000000000600052601160045260246000fd5b600061117582610a64565b915061118083610a64565b92508282019050808211156111985761119761113b565b5b92915050565b60006080820190506111b36000830187610a6e565b6111c06020830186610a6e565b6111cd6040830185610a6e565b6111da6060830184610a89565b9594505050505056fea2646970667358221220e1ad6182b7a33f9da0871169fe4bf4535f63e990409caaf23f9f9e4ade79c26864736f6c63430008110033",
  "immutableReferences": {},
  "source": "// SPDX-License-Identifier: MIT\npragma solidity >=0.4.22 <0.9.0;\n\ncontract AnonSer {\n    struct Provision {\n        uint256 issueTime;\n        uint256 paymentDeadlineTime;\n        uint256 provisionDeadlineTime;\n        bool paidWithCash;\n        string dealId;\n        string cid;\n        bool exist;\n    }\n\n    mapping(bytes => mapping(bytes32 => Provision)) public provisions;\n\n    event ProofOfDelivery(\n        bytes indexed clientPubKey,\n        bytes32 indexed provisionId,\n        uint256 issueTime,\n        uint256 paymentDeadlineTime,\n        uint256 provisionDeadlineTime,\n        bool paidWithCash\n    );\n\n    // Should the provisionId be of service provider and a clinet?\n    // We don't want to allow a client to mess with someone's service\n    function proofOfDelivery(\n        bytes memory clientPubKey,\n        bytes32 provisionId,\n        bool didPaidWithCash\n    ) public {\n        Provision memory provision = Provision({\n            exist: true,\n            issueTime: block.timestamp,\n            paymentDeadlineTime: block.timestamp + 1 days,\n            provisionDeadlineTime: block.timestamp + 8 days,\n            paidWithCash: didPaidWithCash,\n            dealId: \"\",\n            cid: \"\"\n            // should we put here a client's signature?\n        });\n        provisions[clientPubKey][provisionId] = provision;\n        emit ProofOfDelivery(\n            clientPubKey,\n            provisionId,\n            provision.issueTime,\n            provision.paymentDeadlineTime,\n            provision.provisionDeadlineTime,\n            provision.paidWithCash\n        );\n    }\n\n    event ProofOfProvision(\n        bytes indexed clientPubKey,\n        bytes32 indexed provisionId,\n        string cid,\n        string dealId\n    );\n\n    function proofOfProvision(\n        bytes memory clientPubKey,\n        bytes32 provisionId,\n        string memory cid,\n        string memory dealId\n    ) public {\n        Provision storage provision = provisions[clientPubKey][provisionId];\n        if (!provision.exist) {\n            revert(\"Provision does not exist\");\n        }\n\n        provision.cid = cid;\n        provision.dealId = dealId;\n        emit ProofOfProvision(clientPubKey, provisionId, cid, dealId);\n    }\n\n    function getProvision(bytes memory clientPubKey, bytes32 provisionId)\n        public\n        view\n        returns (Provision memory)\n    {\n        return provisions[clientPubKey][provisionId];\n    }\n}\n",
  "sourcePath": "/Users/stanbar/code/anonser/smartcontracts/contracts/AnonSer.sol",
  "compiler": {
    "name": "solc",
    "version": "0.8.17+commit.8df45f5f.Emscripten.clang"
  },
  "schemaVersion": "3.4.10",
  "updatedAt": "2022-11-24T14:07:04.301Z",
  "networkType": "ethereum",
  "devdoc": {
    "kind": "dev",
    "methods": {},
    "version": 1
  },
  "userdoc": {
    "kind": "user",
    "methods": {},
    "version": 1
  }
}