{
  "contractName": "AnonSer",
  "abi": [
    {
      "inputs": [],
      "stateMutability": "nonpayable",
      "type": "constructor"
    },
    {
      "anonymous": false,
      "inputs": [
        {
          "indexed": true,
          "internalType": "bytes",
          "name": "clientPubKey",
          "type": "bytes"
        },
        {
          "indexed": true,
          "internalType": "bytes32",
          "name": "provisionId",
          "type": "bytes32"
        },
        {
          "indexed": false,
          "internalType": "uint256",
          "name": "issueTime",
          "type": "uint256"
        },
        {
          "indexed": false,
          "internalType": "uint256",
          "name": "paymentDeadlineTime",
          "type": "uint256"
        },
        {
          "indexed": false,
          "internalType": "uint256",
          "name": "provisionDeadlineTime",
          "type": "uint256"
        },
        {
          "indexed": false,
          "internalType": "bool",
          "name": "paidInCash",
          "type": "bool"
        },
        {
          "indexed": false,
          "internalType": "string",
          "name": "paymentAddress",
          "type": "string"
        }
      ],
      "name": "ProofOfDelivery",
      "type": "event"
    },
    {
      "anonymous": false,
      "inputs": [
        {
          "indexed": true,
          "internalType": "bytes",
          "name": "clientPubKey",
          "type": "bytes"
        },
        {
          "indexed": true,
          "internalType": "bytes32",
          "name": "provisionId",
          "type": "bytes32"
        },
        {
          "indexed": false,
          "internalType": "string",
          "name": "cid",
          "type": "string"
        },
        {
          "indexed": false,
          "internalType": "uint256",
          "name": "dealId",
          "type": "uint256"
        },
        {
          "indexed": false,
          "internalType": "string",
          "name": "minerId",
          "type": "string"
        }
      ],
      "name": "ProofOfProvision",
      "type": "event"
    },
    {
      "inputs": [
        {
          "internalType": "bytes",
          "name": "",
          "type": "bytes"
        },
        {
          "internalType": "bytes32",
          "name": "",
          "type": "bytes32"
        }
      ],
      "name": "provisions",
      "outputs": [
        {
          "internalType": "uint256",
          "name": "issueTime",
          "type": "uint256"
        },
        {
          "internalType": "uint256",
          "name": "paymentDeadlineTime",
          "type": "uint256"
        },
        {
          "internalType": "uint256",
          "name": "provisionDeadlineTime",
          "type": "uint256"
        },
        {
          "internalType": "bool",
          "name": "paidInCash",
          "type": "bool"
        },
        {
          "internalType": "string",
          "name": "paymentAddress",
          "type": "string"
        },
        {
          "internalType": "string",
          "name": "cid",
          "type": "string"
        },
        {
          "internalType": "bool",
          "name": "exist",
          "type": "bool"
        },
        {
          "internalType": "uint256",
          "name": "dealId",
          "type": "uint256"
        },
        {
          "internalType": "string",
          "name": "minerId",
          "type": "string"
        }
      ],
      "stateMutability": "view",
      "type": "function",
      "constant": true
    },
    {
      "inputs": [
        {
          "internalType": "bytes",
          "name": "clientPubKey",
          "type": "bytes"
        },
        {
          "internalType": "bytes32",
          "name": "provisionId",
          "type": "bytes32"
        },
        {
          "internalType": "bool",
          "name": "paidInCash",
          "type": "bool"
        },
        {
          "internalType": "string",
          "name": "paymentAddress",
          "type": "string"
        }
      ],
      "name": "proofOfDelivery",
      "outputs": [],
      "stateMutability": "nonpayable",
      "type": "function"
    },
    {
      "inputs": [
        {
          "internalType": "bytes",
          "name": "clientPubKey",
          "type": "bytes"
        },
        {
          "internalType": "bytes32",
          "name": "provisionId",
          "type": "bytes32"
        },
        {
          "internalType": "string",
          "name": "cid",
          "type": "string"
        },
        {
          "internalType": "uint256",
          "name": "dealId",
          "type": "uint256"
        },
        {
          "internalType": "string",
          "name": "minerId",
          "type": "string"
        }
      ],
      "name": "proofOfProvision",
      "outputs": [],
      "stateMutability": "nonpayable",
      "type": "function"
    },
    {
      "inputs": [
        {
          "internalType": "bytes",
          "name": "clientPubKey",
          "type": "bytes"
        },
        {
          "internalType": "bytes32",
          "name": "provisionId",
          "type": "bytes32"
        }
      ],
      "name": "getProvision",
      "outputs": [
        {
          "components": [
            {
              "internalType": "uint256",
              "name": "issueTime",
              "type": "uint256"
            },
            {
              "internalType": "uint256",
              "name": "paymentDeadlineTime",
              "type": "uint256"
            },
            {
              "internalType": "uint256",
              "name": "provisionDeadlineTime",
              "type": "uint256"
            },
            {
              "internalType": "bool",
              "name": "paidInCash",
              "type": "bool"
            },
            {
              "internalType": "string",
              "name": "paymentAddress",
              "type": "string"
            },
            {
              "internalType": "string",
              "name": "cid",
              "type": "string"
            },
            {
              "internalType": "bool",
              "name": "exist",
              "type": "bool"
            },
            {
              "internalType": "uint256",
              "name": "dealId",
              "type": "uint256"
            },
            {
              "internalType": "string",
              "name": "minerId",
              "type": "string"
            }
          ],
          "internalType": "struct AnonSer.Provision",
          "name": "",
          "type": "tuple"
        }
      ],
      "stateMutability": "view",
      "type": "function",
      "constant": true
    }
  ],
  "bytecode": "0x608060405234801561001057600080fd5b5033600160006101000a81548173ffffffffffffffffffffffffffffffffffffffff021916908373ffffffffffffffffffffffffffffffffffffffff16021790555061190a806100616000396000f3fe608060405234801561001057600080fd5b506004361061004c5760003560e01c8063763a69a4146100515780639d9e1f8814610089578063d4835c09146100a5578063fff7b46b146100c1575b600080fd5b61006b60048036038101906100669190610c6d565b6100f1565b60405161008099989796959493929190610d7c565b60405180910390f35b6100a3600480360381019061009e9190610eeb565b610314565b005b6100bf60048036038101906100ba9190610fb6565b610694565b005b6100db60048036038101906100d69190610c6d565b61082e565b6040516100e891906111c0565b60405180910390f35b600082805160208101820180518482526020830160208501208183528095505050505050602052806000526040600020600091509150508060000154908060010154908060020154908060030160009054906101000a900460ff169080600401805461015c90611211565b80601f016020809104026020016040519081016040528092919081815260200182805461018890611211565b80156101d55780601f106101aa576101008083540402835291602001916101d5565b820191906000526020600020905b8154815290600101906020018083116101b857829003601f168201915b5050505050908060050180546101ea90611211565b80601f016020809104026020016040519081016040528092919081815260200182805461021690611211565b80156102635780601f1061023857610100808354040283529160200191610263565b820191906000526020600020905b81548152906001019060200180831161024657829003601f168201915b5050505050908060060160009054906101000a900460ff169080600701549080600801805461029190611211565b80601f01602080910402602001604051908101604052809291908181526020018280546102bd90611211565b801561030a5780601f106102df5761010080835404028352916020019161030a565b820191906000526020600020905b8154815290600101906020018083116102ed57829003601f168201915b5050505050905089565b3373ffffffffffffffffffffffffffffffffffffffff16600160009054906101000a900473ffffffffffffffffffffffffffffffffffffffff1673ffffffffffffffffffffffffffffffffffffffff16146103a4576040517f08c379a000000000000000000000000000000000000000000000000000000000815260040161039b906112b4565b60405180910390fd5b6000846040516103b4919061131b565b9081526020016040518091039020600084815260200190815260200160002060060160009054906101000a900460ff1615610424576040517f08c379a000000000000000000000000000000000000000000000000000000000815260040161041b9061137e565b60405180910390fd5b818015610432575060008151115b15610472576040517f08c379a000000000000000000000000000000000000000000000000000000000815260040161046990611410565b60405180910390fd5b81158015610481575060008151145b156104c1576040517f08c379a00000000000000000000000000000000000000000000000000000000081526004016104b8906114a2565b60405180910390fd5b600060405180610120016040528042815260200162015180426104e491906114f1565b8152602001620a8c00426104f891906114f1565b815260200184151581526020018381526020016040518060200160405280600081525081526020016001151581526020016000815260200160405180602001604052806000815250815250905080600086604051610556919061131b565b9081526020016040518091039020600086815260200190815260200160002060008201518160000155602082015181600101556040820151816002015560608201518160030160006101000a81548160ff02191690831515021790555060808201518160040190816105c891906116d1565b5060a08201518160050190816105de91906116d1565b5060c08201518160060160006101000a81548160ff02191690831515021790555060e0820151816007015561010082015181600801908161061f91906116d1565b509050508385604051610632919061131b565b60405180910390207f2c519bf2eb31cb2e4f434d8d127f7fd58c1a6a78cb9ec820112c10c5bd441daf836000015184602001518560400151866060015187608001516040516106859594939291906117a3565b60405180910390a35050505050565b3373ffffffffffffffffffffffffffffffffffffffff16600160009054906101000a900473ffffffffffffffffffffffffffffffffffffffff1673ffffffffffffffffffffffffffffffffffffffff1614610724576040517f08c379a000000000000000000000000000000000000000000000000000000000815260040161071b906112b4565b60405180910390fd5b60008086604051610735919061131b565b9081526020016040518091039020600086815260200190815260200160002090508060060160009054906101000a900460ff166107a7576040517f08c379a000000000000000000000000000000000000000000000000000000000815260040161079e9061186f565b60405180910390fd5b838160050190816107b891906116d1565b50828160070181905550818160080190816107d391906116d1565b5084866040516107e3919061131b565b60405180910390207fd90ec65a0111c2b6f1affb8fcd114241afc06684d3bf7d5dcb9fff42f426321786868660405161081e9392919061188f565b60405180910390a3505050505050565b610836610a8d565b600083604051610846919061131b565b90815260200160405180910390206000838152602001908152602001600020604051806101200160405290816000820154815260200160018201548152602001600282015481526020016003820160009054906101000a900460ff161515151581526020016004820180546108ba90611211565b80601f01602080910402602001604051908101604052809291908181526020018280546108e690611211565b80156109335780601f1061090857610100808354040283529160200191610933565b820191906000526020600020905b81548152906001019060200180831161091657829003601f168201915b5050505050815260200160058201805461094c90611211565b80601f016020809104026020016040519081016040528092919081815260200182805461097890611211565b80156109c55780601f1061099a576101008083540402835291602001916109c5565b820191906000526020600020905b8154815290600101906020018083116109a857829003601f168201915b505050505081526020016006820160009054906101000a900460ff1615151515815260200160078201548152602001600882018054610a0390611211565b80601f0160208091040260200160405190810160405280929190818152602001828054610a2f90611211565b8015610a7c5780601f10610a5157610100808354040283529160200191610a7c565b820191906000526020600020905b815481529060010190602001808311610a5f57829003601f168201915b505050505081525050905092915050565b604051806101200160405280600081526020016000815260200160008152602001600015158152602001606081526020016060815260200160001515815260200160008152602001606081525090565b6000604051905090565b600080fd5b600080fd5b600080fd5b600080fd5b6000601f19601f8301169050919050565b7f4e487b7100000000000000000000000000000000000000000000000000000000600052604160045260246000fd5b610b4482610afb565b810181811067ffffffffffffffff82111715610b6357610b62610b0c565b5b80604052505050565b6000610b76610add565b9050610b828282610b3b565b919050565b600067ffffffffffffffff821115610ba257610ba1610b0c565b5b610bab82610afb565b9050602081019050919050565b82818337600083830152505050565b6000610bda610bd584610b87565b610b6c565b905082815260208101848484011115610bf657610bf5610af6565b5b610c01848285610bb8565b509392505050565b600082601f830112610c1e57610c1d610af1565b5b8135610c2e848260208601610bc7565b91505092915050565b6000819050919050565b610c4a81610c37565b8114610c5557600080fd5b50565b600081359050610c6781610c41565b92915050565b60008060408385031215610c8457610c83610ae7565b5b600083013567ffffffffffffffff811115610ca257610ca1610aec565b5b610cae85828601610c09565b9250506020610cbf85828601610c58565b9150509250929050565b6000819050919050565b610cdc81610cc9565b82525050565b60008115159050919050565b610cf781610ce2565b82525050565b600081519050919050565b600082825260208201905092915050565b60005b83811015610d37578082015181840152602081019050610d1c565b60008484015250505050565b6000610d4e82610cfd565b610d588185610d08565b9350610d68818560208601610d19565b610d7181610afb565b840191505092915050565b600061012082019050610d92600083018c610cd3565b610d9f602083018b610cd3565b610dac604083018a610cd3565b610db96060830189610cee565b8181036080830152610dcb8188610d43565b905081810360a0830152610ddf8187610d43565b9050610dee60c0830186610cee565b610dfb60e0830185610cd3565b818103610100830152610e0e8184610d43565b90509a9950505050505050505050565b610e2781610ce2565b8114610e3257600080fd5b50565b600081359050610e4481610e1e565b92915050565b600067ffffffffffffffff821115610e6557610e64610b0c565b5b610e6e82610afb565b9050602081019050919050565b6000610e8e610e8984610e4a565b610b6c565b905082815260208101848484011115610eaa57610ea9610af6565b5b610eb5848285610bb8565b509392505050565b600082601f830112610ed257610ed1610af1565b5b8135610ee2848260208601610e7b565b91505092915050565b60008060008060808587031215610f0557610f04610ae7565b5b600085013567ffffffffffffffff811115610f2357610f22610aec565b5b610f2f87828801610c09565b9450506020610f4087828801610c58565b9350506040610f5187828801610e35565b925050606085013567ffffffffffffffff811115610f7257610f71610aec565b5b610f7e87828801610ebd565b91505092959194509250565b610f9381610cc9565b8114610f9e57600080fd5b50565b600081359050610fb081610f8a565b92915050565b600080600080600060a08688031215610fd257610fd1610ae7565b5b600086013567ffffffffffffffff811115610ff057610fef610aec565b5b610ffc88828901610c09565b955050602061100d88828901610c58565b945050604086013567ffffffffffffffff81111561102e5761102d610aec565b5b61103a88828901610ebd565b935050606061104b88828901610fa1565b925050608086013567ffffffffffffffff81111561106c5761106b610aec565b5b61107888828901610ebd565b9150509295509295909350565b61108e81610cc9565b82525050565b61109d81610ce2565b82525050565b600082825260208201905092915050565b60006110bf82610cfd565b6110c981856110a3565b93506110d9818560208601610d19565b6110e281610afb565b840191505092915050565b6000610120830160008301516111066000860182611085565b5060208301516111196020860182611085565b50604083015161112c6040860182611085565b50606083015161113f6060860182611094565b506080830151848203608086015261115782826110b4565b91505060a083015184820360a086015261117182826110b4565b91505060c083015161118660c0860182611094565b5060e083015161119960e0860182611085565b506101008301518482036101008601526111b382826110b4565b9150508091505092915050565b600060208201905081810360008301526111da81846110ed565b905092915050565b7f4e487b7100000000000000000000000000000000000000000000000000000000600052602260045260246000fd5b6000600282049050600182168061122957607f821691505b60208210810361123c5761123b6111e2565b5b50919050565b7f4f776e65727368697020417373657274696f6e3a2043616c6c6572206f66207460008201527f68652066756e6374696f6e206973206e6f7420746865206f776e65722e000000602082015250565b600061129e603d83610d08565b91506112a982611242565b604082019050919050565b600060208201905081810360008301526112cd81611291565b9050919050565b600081519050919050565b600081905092915050565b60006112f5826112d4565b6112ff81856112df565b935061130f818560208601610d19565b80840191505092915050565b600061132782846112ea565b915081905092915050565b7f50726f766973696f6e20616c7265616479206578697374730000000000000000600082015250565b6000611368601883610d08565b915061137382611332565b602082019050919050565b600060208201905081810360008301526113978161135b565b9050919050565b7f5061796d656e7420616464726573732073686f756c6420626520656d7074792060008201527f6966207061696420696e20636173680000000000000000000000000000000000602082015250565b60006113fa602f83610d08565b91506114058261139e565b604082019050919050565b60006020820190508181036000830152611429816113ed565b9050919050565b7f5061796d656e7420616464726573732073686f756c64206e6f7420626520656d60008201527f707479206966206469646e2774207061696420696e2063617368000000000000602082015250565b600061148c603a83610d08565b915061149782611430565b604082019050919050565b600060208201905081810360008301526114bb8161147f565b9050919050565b7f4e487b7100000000000000000000000000000000000000000000000000000000600052601160045260246000fd5b60006114fc82610cc9565b915061150783610cc9565b925082820190508082111561151f5761151e6114c2565b5b92915050565b60008190508160005260206000209050919050565b60006020601f8301049050919050565b600082821b905092915050565b6000600883026115877fffffffffffffffffffffffffffffffffffffffffffffffffffffffffffffffff8261154a565b611591868361154a565b95508019841693508086168417925050509392505050565b6000819050919050565b60006115ce6115c96115c484610cc9565b6115a9565b610cc9565b9050919050565b6000819050919050565b6115e8836115b3565b6115fc6115f4826115d5565b848454611557565b825550505050565b600090565b611611611604565b61161c8184846115df565b505050565b5b8181101561164057611635600082611609565b600181019050611622565b5050565b601f8211156116855761165681611525565b61165f8461153a565b8101602085101561166e578190505b61168261167a8561153a565b830182611621565b50505b505050565b600082821c905092915050565b60006116a86000198460080261168a565b1980831691505092915050565b60006116c18383611697565b9150826002028217905092915050565b6116da82610cfd565b67ffffffffffffffff8111156116f3576116f2610b0c565b5b6116fd8254611211565b611708828285611644565b600060209050601f83116001811461173b5760008415611729578287015190505b61173385826116b5565b86555061179b565b601f19841661174986611525565b60005b828110156117715784890151825560018201915060208501945060208101905061174c565b8683101561178e578489015161178a601f891682611697565b8355505b6001600288020188555050505b505050505050565b600060a0820190506117b86000830188610cd3565b6117c56020830187610cd3565b6117d26040830186610cd3565b6117df6060830185610cee565b81810360808301526117f18184610d43565b90509695505050505050565b7f50726f766973696f6e206d75737420626520637265617465642077697468207060008201527f726f6f66206f662064656c697665727920666972737400000000000000000000602082015250565b6000611859603683610d08565b9150611864826117fd565b604082019050919050565b600060208201905081810360008301526118888161184c565b9050919050565b600060608201905081810360008301526118a98186610d43565b90506118b86020830185610cd3565b81810360408301526118ca8184610d43565b905094935050505056fea26469706673582212201f262c734330e72b021ceffacdf63b194291c23574abfe1079a03621d285d08f64736f6c63430008110033",
  "immutableReferences": {},
  "source": "// SPDX-License-Identifier: MIT\npragma solidity >=0.4.22 <0.9.0;\n\ncontract AnonSer {\n    struct Provision {\n        uint256 issueTime;\n        uint256 paymentDeadlineTime;\n        uint256 provisionDeadlineTime;\n        bool paidInCash;\n        string paymentAddress;\n        string cid;\n        bool exist;\n        uint256 dealId;\n        string minerId;\n    }\n\n    mapping(bytes => mapping(bytes32 => Provision)) public provisions;\n\n    address private _owner;\n\n    event ProofOfDelivery(\n        bytes indexed clientPubKey,\n        bytes32 indexed provisionId,\n        uint256 issueTime,\n        uint256 paymentDeadlineTime,\n        uint256 provisionDeadlineTime,\n        bool paidInCash,\n        string paymentAddress\n    );\n\n    constructor() {\n        _owner = msg.sender;\n    }\n\n    modifier onlyOwner() {\n        require(\n            _owner == msg.sender,\n            \"Ownership Assertion: Caller of the function is not the owner.\"\n        );\n        _;\n    }\n\n    function proofOfDelivery(\n        bytes memory clientPubKey,\n        bytes32 provisionId,\n        bool paidInCash,\n        string memory paymentAddress\n    ) public onlyOwner {\n        if (provisions[clientPubKey][provisionId].exist) {\n            revert(\"Provision already exists\");\n        }\n        if (paidInCash && bytes(paymentAddress).length > 0) {\n            revert(\"Payment address should be empty if paid in cash\");\n        }\n        if (!paidInCash && bytes(paymentAddress).length == 0) {\n            revert(\n                \"Payment address should not be empty if didn't paid in cash\"\n            );\n        }\n        Provision memory provision = Provision({\n            exist: true,\n            issueTime: block.timestamp,\n            paymentDeadlineTime: block.timestamp + 1 days,\n            provisionDeadlineTime: block.timestamp + 8 days,\n            paidInCash: paidInCash,\n            paymentAddress: paymentAddress,\n            dealId: 0,\n            cid: \"\",\n            minerId: \"\"\n        });\n        provisions[clientPubKey][provisionId] = provision;\n        emit ProofOfDelivery(\n            clientPubKey,\n            provisionId,\n            provision.issueTime,\n            provision.paymentDeadlineTime,\n            provision.provisionDeadlineTime,\n            provision.paidInCash,\n            provision.paymentAddress\n        );\n    }\n\n    event ProofOfProvision(\n        bytes indexed clientPubKey,\n        bytes32 indexed provisionId,\n        string cid,\n        uint256 dealId,\n        string minerId\n    );\n\n    function proofOfProvision(\n        bytes memory clientPubKey,\n        bytes32 provisionId,\n        string memory cid,\n        uint256 dealId,\n        string memory minerId\n    ) public onlyOwner {\n        Provision storage provision = provisions[clientPubKey][provisionId];\n        if (!provision.exist) {\n            revert(\"Provision must be created with proof of delivery first\");\n        }\n\n        provision.cid = cid;\n        provision.dealId = dealId;\n        provision.minerId = minerId;\n        emit ProofOfProvision(clientPubKey, provisionId, cid, dealId, minerId);\n    }\n\n    function getProvision(bytes memory clientPubKey, bytes32 provisionId)\n        public\n        view\n        returns (Provision memory)\n    {\n        return provisions[clientPubKey][provisionId];\n    }\n}\n",
  "sourcePath": "/Users/stanbar/code/anonser/smartcontracts/contracts/AnonSer.sol",
  "compiler": {
    "name": "solc",
    "version": "0.8.17+commit.8df45f5f.Emscripten.clang"
  },
  "schemaVersion": "3.4.10",
  "updatedAt": "2023-01-09T22:42:14.180Z",
  "networkType": "ethereum",
  "devdoc": {
    "kind": "dev",
    "methods": {},
    "version": 1
  },
  "userdoc": {
    "kind": "user",
    "methods": {},
    "version": 1
  }
}