{
  "contractName": "AnonSer",
  "abi": [
    {
      "anonymous": false,
      "inputs": [
        {
          "indexed": true,
          "internalType": "address",
          "name": "clientPubKey",
          "type": "address"
        },
        {
          "indexed": true,
          "internalType": "bytes32",
          "name": "provisionId",
          "type": "bytes32"
        }
      ],
      "name": "ProofOfDelivery",
      "type": "event"
    },
    {
      "anonymous": false,
      "inputs": [
        {
          "indexed": true,
          "internalType": "address",
          "name": "clientPubKey",
          "type": "address"
        },
        {
          "indexed": true,
          "internalType": "bytes32",
          "name": "provisionId",
          "type": "bytes32"
        },
        {
          "indexed": false,
          "internalType": "string",
          "name": "cid",
          "type": "string"
        },
        {
          "indexed": false,
          "internalType": "string",
          "name": "dealId",
          "type": "string"
        }
      ],
      "name": "ProofOfProvision",
      "type": "event"
    },
    {
      "inputs": [
        {
          "internalType": "address",
          "name": "clientPubKey",
          "type": "address"
        },
        {
          "internalType": "bool",
          "name": "didPaidWithCash",
          "type": "bool"
        }
      ],
      "name": "proofOfDelivery",
      "outputs": [
        {
          "internalType": "bytes32",
          "name": "provisionId",
          "type": "bytes32"
        }
      ],
      "stateMutability": "nonpayable",
      "type": "function"
    },
    {
      "inputs": [
        {
          "internalType": "address",
          "name": "clientPubKey",
          "type": "address"
        },
        {
          "internalType": "bytes32",
          "name": "provisionId",
          "type": "bytes32"
        },
        {
          "internalType": "string",
          "name": "cid",
          "type": "string"
        },
        {
          "internalType": "string",
          "name": "dealId",
          "type": "string"
        }
      ],
      "name": "proofOfProvision",
      "outputs": [],
      "stateMutability": "nonpayable",
      "type": "function"
    },
    {
      "inputs": [
        {
          "internalType": "address",
          "name": "clientPubKey",
          "type": "address"
        },
        {
          "internalType": "bytes32",
          "name": "provisionId",
          "type": "bytes32"
        }
      ],
      "name": "getProvision",
      "outputs": [
        {
          "components": [
            {
              "internalType": "uint256",
              "name": "issueTime",
              "type": "uint256"
            },
            {
              "internalType": "uint256",
              "name": "paymentDeadlineTime",
              "type": "uint256"
            },
            {
              "internalType": "uint256",
              "name": "provisionDeadlineTime",
              "type": "uint256"
            },
            {
              "internalType": "bool",
              "name": "paidWithCash",
              "type": "bool"
            },
            {
              "internalType": "string",
              "name": "dealId",
              "type": "string"
            },
            {
              "internalType": "string",
              "name": "cid",
              "type": "string"
            },
            {
              "internalType": "bool",
              "name": "exist",
              "type": "bool"
            }
          ],
          "internalType": "struct AnonSer.Provision",
          "name": "",
          "type": "tuple"
        }
      ],
      "stateMutability": "view",
      "type": "function"
    }
  ],
  "bytecode": "0x608060405234801561001057600080fd5b50610fdf806100206000396000f3fe608060405234801561001057600080fd5b50600436106100415760003560e01c806327593e6014610046578063421aaaf6146100625780636f6fc1a814610092575b600080fd5b610060600480360381019061005b91906107c5565b6100c2565b005b61007c60048036038101906100779190610864565b6101e2565b60405161008991906109fa565b60405180910390f35b6100ac60048036038101906100a79190610a48565b6103c4565b6040516100b99190610a97565b60405180910390f35b60008060008673ffffffffffffffffffffffffffffffffffffffff1673ffffffffffffffffffffffffffffffffffffffff168152602001908152602001600020600085815260200190815260200160002090508060060160009054906101000a900460ff16610166576040517f08c379a000000000000000000000000000000000000000000000000000000000815260040161015d90610b0f565b60405180910390fd5b828160050190816101779190610d3b565b50818160040190816101899190610d3b565b50838573ffffffffffffffffffffffffffffffffffffffff167fbf3d40190fe379725f8f24a3c3f1da3cc7b2266057622103e96c7f60666c419285856040516101d3929190610e46565b60405180910390a35050505050565b6101ea610596565b6000808473ffffffffffffffffffffffffffffffffffffffff1673ffffffffffffffffffffffffffffffffffffffff16815260200190815260200160002060008381526020019081526020016000206040518060e00160405290816000820154815260200160018201548152602001600282015481526020016003820160009054906101000a900460ff1615151515815260200160048201805461028d90610b5e565b80601f01602080910402602001604051908101604052809291908181526020018280546102b990610b5e565b80156103065780601f106102db57610100808354040283529160200191610306565b820191906000526020600020905b8154815290600101906020018083116102e957829003601f168201915b5050505050815260200160058201805461031f90610b5e565b80601f016020809104026020016040519081016040528092919081815260200182805461034b90610b5e565b80156103985780601f1061036d57610100808354040283529160200191610398565b820191906000526020600020905b81548152906001019060200180831161037b57829003601f168201915b505050505081526020016006820160009054906101000a900460ff161515151581525050905092915050565b6000826001436103d49190610eac565b406040516020016103e6929190610f49565b6040516020818303038152906040528051906020012090506040518060e00160405280428152602001620151804261041e9190610f75565b8152602001620a8c00426104329190610f75565b81526020018315158152602001604051806020016040528060008152508152602001604051806020016040528060008152508152602001600115158152506000808573ffffffffffffffffffffffffffffffffffffffff1673ffffffffffffffffffffffffffffffffffffffff168152602001908152602001600020600083815260200190815260200160002060008201518160000155602082015181600101556040820151816002015560608201518160030160006101000a81548160ff02191690831515021790555060808201518160040190816105129190610d3b565b5060a08201518160050190816105289190610d3b565b5060c08201518160060160006101000a81548160ff021916908315150217905550905050808373ffffffffffffffffffffffffffffffffffffffff167f7ae8a5a52e498709aa7dd0e6ed944f9a6b01239e0de0bd009ae25e03689fadba60405160405180910390a392915050565b6040518060e0016040528060008152602001600081526020016000815260200160001515815260200160608152602001606081526020016000151581525090565b6000604051905090565b600080fd5b600080fd5b600073ffffffffffffffffffffffffffffffffffffffff82169050919050565b6000610616826105eb565b9050919050565b6106268161060b565b811461063157600080fd5b50565b6000813590506106438161061d565b92915050565b6000819050919050565b61065c81610649565b811461066757600080fd5b50565b60008135905061067981610653565b92915050565b600080fd5b600080fd5b6000601f19601f8301169050919050565b7f4e487b7100000000000000000000000000000000000000000000000000000000600052604160045260246000fd5b6106d282610689565b810181811067ffffffffffffffff821117156106f1576106f061069a565b5b80604052505050565b60006107046105d7565b905061071082826106c9565b919050565b600067ffffffffffffffff8211156107305761072f61069a565b5b61073982610689565b9050602081019050919050565b82818337600083830152505050565b600061076861076384610715565b6106fa565b90508281526020810184848401111561078457610783610684565b5b61078f848285610746565b509392505050565b600082601f8301126107ac576107ab61067f565b5b81356107bc848260208601610755565b91505092915050565b600080600080608085870312156107df576107de6105e1565b5b60006107ed87828801610634565b94505060206107fe8782880161066a565b935050604085013567ffffffffffffffff81111561081f5761081e6105e6565b5b61082b87828801610797565b925050606085013567ffffffffffffffff81111561084c5761084b6105e6565b5b61085887828801610797565b91505092959194509250565b6000806040838503121561087b5761087a6105e1565b5b600061088985828601610634565b925050602061089a8582860161066a565b9150509250929050565b6000819050919050565b6108b7816108a4565b82525050565b60008115159050919050565b6108d2816108bd565b82525050565b600081519050919050565b600082825260208201905092915050565b60005b838110156109125780820151818401526020810190506108f7565b60008484015250505050565b6000610929826108d8565b61093381856108e3565b93506109438185602086016108f4565b61094c81610689565b840191505092915050565b600060e08301600083015161096f60008601826108ae565b50602083015161098260208601826108ae565b50604083015161099560408601826108ae565b5060608301516109a860608601826108c9565b50608083015184820360808601526109c0828261091e565b91505060a083015184820360a08601526109da828261091e565b91505060c08301516109ef60c08601826108c9565b508091505092915050565b60006020820190508181036000830152610a148184610957565b905092915050565b610a25816108bd565b8114610a3057600080fd5b50565b600081359050610a4281610a1c565b92915050565b60008060408385031215610a5f57610a5e6105e1565b5b6000610a6d85828601610634565b9250506020610a7e85828601610a33565b9150509250929050565b610a9181610649565b82525050565b6000602082019050610aac6000830184610a88565b92915050565b600082825260208201905092915050565b7f50726f766973696f6e20646f6573206e6f742065786973740000000000000000600082015250565b6000610af9601883610ab2565b9150610b0482610ac3565b602082019050919050565b60006020820190508181036000830152610b2881610aec565b9050919050565b7f4e487b7100000000000000000000000000000000000000000000000000000000600052602260045260246000fd5b60006002820490506001821680610b7657607f821691505b602082108103610b8957610b88610b2f565b5b50919050565b60008190508160005260206000209050919050565b60006020601f8301049050919050565b600082821b905092915050565b600060088302610bf17fffffffffffffffffffffffffffffffffffffffffffffffffffffffffffffffff82610bb4565b610bfb8683610bb4565b95508019841693508086168417925050509392505050565b6000819050919050565b6000610c38610c33610c2e846108a4565b610c13565b6108a4565b9050919050565b6000819050919050565b610c5283610c1d565b610c66610c5e82610c3f565b848454610bc1565b825550505050565b600090565b610c7b610c6e565b610c86818484610c49565b505050565b5b81811015610caa57610c9f600082610c73565b600181019050610c8c565b5050565b601f821115610cef57610cc081610b8f565b610cc984610ba4565b81016020851015610cd8578190505b610cec610ce485610ba4565b830182610c8b565b50505b505050565b600082821c905092915050565b6000610d1260001984600802610cf4565b1980831691505092915050565b6000610d2b8383610d01565b9150826002028217905092915050565b610d44826108d8565b67ffffffffffffffff811115610d5d57610d5c61069a565b5b610d678254610b5e565b610d72828285610cae565b600060209050601f831160018114610da55760008415610d93578287015190505b610d9d8582610d1f565b865550610e05565b601f198416610db386610b8f565b60005b82811015610ddb57848901518255600182019150602085019450602081019050610db6565b86831015610df85784890151610df4601f891682610d01565b8355505b6001600288020188555050505b505050505050565b6000610e18826108d8565b610e228185610ab2565b9350610e328185602086016108f4565b610e3b81610689565b840191505092915050565b60006040820190508181036000830152610e608185610e0d565b90508181036020830152610e748184610e0d565b90509392505050565b7f4e487b7100000000000000000000000000000000000000000000000000000000600052601160045260246000fd5b6000610eb7826108a4565b9150610ec2836108a4565b9250828203905081811115610eda57610ed9610e7d565b5b92915050565b60008160601b9050919050565b6000610ef882610ee0565b9050919050565b6000610f0a82610eed565b9050919050565b610f22610f1d8261060b565b610eff565b82525050565b6000819050919050565b610f43610f3e82610649565b610f28565b82525050565b6000610f558285610f11565b601482019150610f658284610f32565b6020820191508190509392505050565b6000610f80826108a4565b9150610f8b836108a4565b9250828201905080821115610fa357610fa2610e7d565b5b9291505056fea2646970667358221220685738e17f57581c173b02f017a7c8d28fd8b0f501d682eb7abaad747691020d64736f6c63430008110033",
  "immutableReferences": {},
  "source": "// SPDX-License-Identifier: MIT\npragma solidity >=0.4.22 <0.9.0;\n\ncontract AnonSer {\n\n  struct Provision {\n    uint256 issueTime;\n    uint256 paymentDeadlineTime;\n    uint256 provisionDeadlineTime;\n    bool paidWithCash;\n    string dealId;\n    string cid;\n    bool exist;\n  }\n\n\tmapping (address => mapping (bytes32 => Provision)) provisions;\n\n  event ProofOfDelivery(address indexed clientPubKey, \n                        bytes32 indexed provisionId);\n\n  // Should the provisionId be of service provider and a clinet?\n  // We don't want to allow a client to mess with someone's service\n  function proofOfDelivery(address clientPubKey, bool didPaidWithCash) public returns (bytes32 provisionId) {\n\n    provisionId = keccak256(abi.encodePacked(clientPubKey, blockhash(block.number - 1)));\n\n    provisions[clientPubKey][provisionId] = Provision({\n      exist: true,\n      issueTime: block.timestamp,\n      paymentDeadlineTime: block.timestamp + 1 days,\n      provisionDeadlineTime: block.timestamp + 8 days,\n      paidWithCash: didPaidWithCash,\n      dealId: \"\",\n      cid: \"\"\n      // should we put here a client's signature?\n    });\n    emit ProofOfDelivery(clientPubKey, provisionId);\n  }\n\n  event ProofOfProvision(address indexed clientPubKey, \n                        bytes32 indexed provisionId,\n                        string cid,\n                        string dealId\n                        );\n\n  function proofOfProvision(address clientPubKey, bytes32 provisionId, string memory cid, string memory dealId) public {\n    Provision storage provision = provisions[clientPubKey][provisionId];\n    if (!provision.exist) {\n      revert(\"Provision does not exist\");\n    }\n\n    provision.cid = cid;\n    provision.dealId = dealId;\n    emit ProofOfProvision(clientPubKey, provisionId, cid, dealId);\n  }\n\n  function getProvision(address clientPubKey, bytes32 provisionId) public view returns (Provision memory) {\n    return provisions[clientPubKey][provisionId];\n  }\n}\n",
  "sourcePath": "/Users/stanbar/code/anonser/smartcontracts/contracts/AnonSer.sol",
  "compiler": {
    "name": "solc",
    "version": "0.8.17+commit.8df45f5f.Emscripten.clang"
  },
  "schemaVersion": "3.4.10",
  "updatedAt": "2022-11-16T00:08:25.839Z",
  "devdoc": {
    "kind": "dev",
    "methods": {},
    "version": 1
  },
  "userdoc": {
    "kind": "user",
    "methods": {},
    "version": 1
  }
}