{
  "contractName": "AnonSer",
  "abi": [
    {
      "anonymous": false,
      "inputs": [
        {
          "indexed": true,
          "internalType": "address",
          "name": "clientPubKey",
          "type": "address"
        },
        {
          "indexed": true,
          "internalType": "bytes32",
          "name": "provisionId",
          "type": "bytes32"
        }
      ],
      "name": "ProofOfDelivery",
      "type": "event"
    },
    {
      "anonymous": false,
      "inputs": [
        {
          "indexed": true,
          "internalType": "address",
          "name": "clientPubKey",
          "type": "address"
        },
        {
          "indexed": true,
          "internalType": "bytes32",
          "name": "provisionId",
          "type": "bytes32"
        },
        {
          "indexed": false,
          "internalType": "string",
          "name": "cid",
          "type": "string"
        },
        {
          "indexed": false,
          "internalType": "string",
          "name": "dealId",
          "type": "string"
        }
      ],
      "name": "ProofOfProvision",
      "type": "event"
    },
    {
      "inputs": [
        {
          "internalType": "address",
          "name": "",
          "type": "address"
        },
        {
          "internalType": "bytes32",
          "name": "",
          "type": "bytes32"
        }
      ],
      "name": "provisions",
      "outputs": [
        {
          "internalType": "uint256",
          "name": "issueTime",
          "type": "uint256"
        },
        {
          "internalType": "uint256",
          "name": "paymentDeadlineTime",
          "type": "uint256"
        },
        {
          "internalType": "uint256",
          "name": "provisionDeadlineTime",
          "type": "uint256"
        },
        {
          "internalType": "bool",
          "name": "paidWithCash",
          "type": "bool"
        },
        {
          "internalType": "string",
          "name": "dealId",
          "type": "string"
        },
        {
          "internalType": "string",
          "name": "cid",
          "type": "string"
        },
        {
          "internalType": "bool",
          "name": "exist",
          "type": "bool"
        }
      ],
      "stateMutability": "view",
      "type": "function",
      "constant": true
    },
    {
      "inputs": [
        {
          "internalType": "address",
          "name": "clientPubKey",
          "type": "address"
        },
        {
          "internalType": "bool",
          "name": "didPaidWithCash",
          "type": "bool"
        }
      ],
      "name": "proofOfDelivery",
      "outputs": [
        {
          "internalType": "bytes32",
          "name": "provisionId",
          "type": "bytes32"
        }
      ],
      "stateMutability": "nonpayable",
      "type": "function"
    },
    {
      "inputs": [
        {
          "internalType": "address",
          "name": "clientPubKey",
          "type": "address"
        },
        {
          "internalType": "bytes32",
          "name": "provisionId",
          "type": "bytes32"
        },
        {
          "internalType": "string",
          "name": "cid",
          "type": "string"
        },
        {
          "internalType": "string",
          "name": "dealId",
          "type": "string"
        }
      ],
      "name": "proofOfProvision",
      "outputs": [],
      "stateMutability": "nonpayable",
      "type": "function"
    },
    {
      "inputs": [
        {
          "internalType": "address",
          "name": "clientPubKey",
          "type": "address"
        },
        {
          "internalType": "bytes32",
          "name": "provisionId",
          "type": "bytes32"
        }
      ],
      "name": "getProvision",
      "outputs": [
        {
          "components": [
            {
              "internalType": "uint256",
              "name": "issueTime",
              "type": "uint256"
            },
            {
              "internalType": "uint256",
              "name": "paymentDeadlineTime",
              "type": "uint256"
            },
            {
              "internalType": "uint256",
              "name": "provisionDeadlineTime",
              "type": "uint256"
            },
            {
              "internalType": "bool",
              "name": "paidWithCash",
              "type": "bool"
            },
            {
              "internalType": "string",
              "name": "dealId",
              "type": "string"
            },
            {
              "internalType": "string",
              "name": "cid",
              "type": "string"
            },
            {
              "internalType": "bool",
              "name": "exist",
              "type": "bool"
            }
          ],
          "internalType": "struct AnonSer.Provision",
          "name": "",
          "type": "tuple"
        }
      ],
      "stateMutability": "view",
      "type": "function",
      "constant": true
    }
  ],
  "bytecode": "0x608060405234801561001057600080fd5b50611234806100206000396000f3fe608060405234801561001057600080fd5b506004361061004c5760003560e01c806327593e6014610051578063421aaaf61461006d57806342b324bf1461009d5780636f6fc1a8146100d3575b600080fd5b61006b6004803603810190610066919061097f565b610103565b005b61008760048036038101906100829190610a1e565b610223565b6040516100949190610bb4565b60405180910390f35b6100b760048036038101906100b29190610a1e565b610405565b6040516100ca9796959493929190610c3e565b60405180910390f35b6100ed60048036038101906100e89190610ce7565b61057e565b6040516100fa9190610d36565b60405180910390f35b60008060008673ffffffffffffffffffffffffffffffffffffffff1673ffffffffffffffffffffffffffffffffffffffff168152602001908152602001600020600085815260200190815260200160002090508060060160009054906101000a900460ff166101a7576040517f08c379a000000000000000000000000000000000000000000000000000000000815260040161019e90610d9d565b60405180910390fd5b828160050190816101b89190610fc9565b50818160040190816101ca9190610fc9565b50838573ffffffffffffffffffffffffffffffffffffffff167fbf3d40190fe379725f8f24a3c3f1da3cc7b2266057622103e96c7f60666c4192858560405161021492919061109b565b60405180910390a35050505050565b61022b610750565b6000808473ffffffffffffffffffffffffffffffffffffffff1673ffffffffffffffffffffffffffffffffffffffff16815260200190815260200160002060008381526020019081526020016000206040518060e00160405290816000820154815260200160018201548152602001600282015481526020016003820160009054906101000a900460ff161515151581526020016004820180546102ce90610dec565b80601f01602080910402602001604051908101604052809291908181526020018280546102fa90610dec565b80156103475780601f1061031c57610100808354040283529160200191610347565b820191906000526020600020905b81548152906001019060200180831161032a57829003601f168201915b5050505050815260200160058201805461036090610dec565b80601f016020809104026020016040519081016040528092919081815260200182805461038c90610dec565b80156103d95780601f106103ae576101008083540402835291602001916103d9565b820191906000526020600020905b8154815290600101906020018083116103bc57829003601f168201915b505050505081526020016006820160009054906101000a900460ff161515151581525050905092915050565b6000602052816000526040600020602052806000526040600020600091509150508060000154908060010154908060020154908060030160009054906101000a900460ff169080600401805461045a90610dec565b80601f016020809104026020016040519081016040528092919081815260200182805461048690610dec565b80156104d35780601f106104a8576101008083540402835291602001916104d3565b820191906000526020600020905b8154815290600101906020018083116104b657829003601f168201915b5050505050908060050180546104e890610dec565b80601f016020809104026020016040519081016040528092919081815260200182805461051490610dec565b80156105615780601f1061053657610100808354040283529160200191610561565b820191906000526020600020905b81548152906001019060200180831161054457829003601f168201915b5050505050908060060160009054906101000a900460ff16905087565b60008260014361058e9190611101565b406040516020016105a092919061119e565b6040516020818303038152906040528051906020012090506040518060e0016040528042815260200162015180426105d891906111ca565b8152602001620a8c00426105ec91906111ca565b81526020018315158152602001604051806020016040528060008152508152602001604051806020016040528060008152508152602001600115158152506000808573ffffffffffffffffffffffffffffffffffffffff1673ffffffffffffffffffffffffffffffffffffffff168152602001908152602001600020600083815260200190815260200160002060008201518160000155602082015181600101556040820151816002015560608201518160030160006101000a81548160ff02191690831515021790555060808201518160040190816106cc9190610fc9565b5060a08201518160050190816106e29190610fc9565b5060c08201518160060160006101000a81548160ff021916908315150217905550905050808373ffffffffffffffffffffffffffffffffffffffff167f7ae8a5a52e498709aa7dd0e6ed944f9a6b01239e0de0bd009ae25e03689fadba60405160405180910390a392915050565b6040518060e0016040528060008152602001600081526020016000815260200160001515815260200160608152602001606081526020016000151581525090565b6000604051905090565b600080fd5b600080fd5b600073ffffffffffffffffffffffffffffffffffffffff82169050919050565b60006107d0826107a5565b9050919050565b6107e0816107c5565b81146107eb57600080fd5b50565b6000813590506107fd816107d7565b92915050565b6000819050919050565b61081681610803565b811461082157600080fd5b50565b6000813590506108338161080d565b92915050565b600080fd5b600080fd5b6000601f19601f8301169050919050565b7f4e487b7100000000000000000000000000000000000000000000000000000000600052604160045260246000fd5b61088c82610843565b810181811067ffffffffffffffff821117156108ab576108aa610854565b5b80604052505050565b60006108be610791565b90506108ca8282610883565b919050565b600067ffffffffffffffff8211156108ea576108e9610854565b5b6108f382610843565b9050602081019050919050565b82818337600083830152505050565b600061092261091d846108cf565b6108b4565b90508281526020810184848401111561093e5761093d61083e565b5b610949848285610900565b509392505050565b600082601f83011261096657610965610839565b5b813561097684826020860161090f565b91505092915050565b600080600080608085870312156109995761099861079b565b5b60006109a7878288016107ee565b94505060206109b887828801610824565b935050604085013567ffffffffffffffff8111156109d9576109d86107a0565b5b6109e587828801610951565b925050606085013567ffffffffffffffff811115610a0657610a056107a0565b5b610a1287828801610951565b91505092959194509250565b60008060408385031215610a3557610a3461079b565b5b6000610a43858286016107ee565b9250506020610a5485828601610824565b9150509250929050565b6000819050919050565b610a7181610a5e565b82525050565b60008115159050919050565b610a8c81610a77565b82525050565b600081519050919050565b600082825260208201905092915050565b60005b83811015610acc578082015181840152602081019050610ab1565b60008484015250505050565b6000610ae382610a92565b610aed8185610a9d565b9350610afd818560208601610aae565b610b0681610843565b840191505092915050565b600060e083016000830151610b296000860182610a68565b506020830151610b3c6020860182610a68565b506040830151610b4f6040860182610a68565b506060830151610b626060860182610a83565b5060808301518482036080860152610b7a8282610ad8565b91505060a083015184820360a0860152610b948282610ad8565b91505060c0830151610ba960c0860182610a83565b508091505092915050565b60006020820190508181036000830152610bce8184610b11565b905092915050565b610bdf81610a5e565b82525050565b610bee81610a77565b82525050565b600082825260208201905092915050565b6000610c1082610a92565b610c1a8185610bf4565b9350610c2a818560208601610aae565b610c3381610843565b840191505092915050565b600060e082019050610c53600083018a610bd6565b610c606020830189610bd6565b610c6d6040830188610bd6565b610c7a6060830187610be5565b8181036080830152610c8c8186610c05565b905081810360a0830152610ca08185610c05565b9050610caf60c0830184610be5565b98975050505050505050565b610cc481610a77565b8114610ccf57600080fd5b50565b600081359050610ce181610cbb565b92915050565b60008060408385031215610cfe57610cfd61079b565b5b6000610d0c858286016107ee565b9250506020610d1d85828601610cd2565b9150509250929050565b610d3081610803565b82525050565b6000602082019050610d4b6000830184610d27565b92915050565b7f50726f766973696f6e20646f6573206e6f742065786973740000000000000000600082015250565b6000610d87601883610bf4565b9150610d9282610d51565b602082019050919050565b60006020820190508181036000830152610db681610d7a565b9050919050565b7f4e487b7100000000000000000000000000000000000000000000000000000000600052602260045260246000fd5b60006002820490506001821680610e0457607f821691505b602082108103610e1757610e16610dbd565b5b50919050565b60008190508160005260206000209050919050565b60006020601f8301049050919050565b600082821b905092915050565b600060088302610e7f7fffffffffffffffffffffffffffffffffffffffffffffffffffffffffffffffff82610e42565b610e898683610e42565b95508019841693508086168417925050509392505050565b6000819050919050565b6000610ec6610ec1610ebc84610a5e565b610ea1565b610a5e565b9050919050565b6000819050919050565b610ee083610eab565b610ef4610eec82610ecd565b848454610e4f565b825550505050565b600090565b610f09610efc565b610f14818484610ed7565b505050565b5b81811015610f3857610f2d600082610f01565b600181019050610f1a565b5050565b601f821115610f7d57610f4e81610e1d565b610f5784610e32565b81016020851015610f66578190505b610f7a610f7285610e32565b830182610f19565b50505b505050565b600082821c905092915050565b6000610fa060001984600802610f82565b1980831691505092915050565b6000610fb98383610f8f565b9150826002028217905092915050565b610fd282610a92565b67ffffffffffffffff811115610feb57610fea610854565b5b610ff58254610dec565b611000828285610f3c565b600060209050601f8311600181146110335760008415611021578287015190505b61102b8582610fad565b865550611093565b601f19841661104186610e1d565b60005b8281101561106957848901518255600182019150602085019450602081019050611044565b868310156110865784890151611082601f891682610f8f565b8355505b6001600288020188555050505b505050505050565b600060408201905081810360008301526110b58185610c05565b905081810360208301526110c98184610c05565b90509392505050565b7f4e487b7100000000000000000000000000000000000000000000000000000000600052601160045260246000fd5b600061110c82610a5e565b915061111783610a5e565b925082820390508181111561112f5761112e6110d2565b5b92915050565b60008160601b9050919050565b600061114d82611135565b9050919050565b600061115f82611142565b9050919050565b611177611172826107c5565b611154565b82525050565b6000819050919050565b61119861119382610803565b61117d565b82525050565b60006111aa8285611166565b6014820191506111ba8284611187565b6020820191508190509392505050565b60006111d582610a5e565b91506111e083610a5e565b92508282019050808211156111f8576111f76110d2565b5b9291505056fea2646970667358221220cfb6c2bed551cb01f8015ff99d51d2f47d3bf865a886171fa4a9505e67947f2264736f6c63430008110033",
  "immutableReferences": {},
  "source": "// SPDX-License-Identifier: MIT\npragma solidity >=0.4.22 <0.9.0;\n\ncontract AnonSer {\n\n  struct Provision {\n    uint256 issueTime;\n    uint256 paymentDeadlineTime;\n    uint256 provisionDeadlineTime;\n    bool paidWithCash;\n    string dealId;\n    string cid;\n    bool exist;\n  }\n\n\tmapping (address => mapping (bytes32 => Provision)) public provisions;\n\n  event ProofOfDelivery(address indexed clientPubKey, \n                        bytes32 indexed provisionId);\n\n  // Should the provisionId be of service provider and a clinet?\n  // We don't want to allow a client to mess with someone's service\n  function proofOfDelivery(address clientPubKey, bool didPaidWithCash) public returns (bytes32 provisionId) {\n\n    provisionId = keccak256(abi.encodePacked(clientPubKey, blockhash(block.number - 1)));\n\n    provisions[clientPubKey][provisionId] = Provision({\n      exist: true,\n      issueTime: block.timestamp,\n      paymentDeadlineTime: block.timestamp + 1 days,\n      provisionDeadlineTime: block.timestamp + 8 days,\n      paidWithCash: didPaidWithCash,\n      dealId: \"\",\n      cid: \"\"\n      // should we put here a client's signature?\n    });\n    emit ProofOfDelivery(clientPubKey, provisionId);\n  }\n\n  event ProofOfProvision(address indexed clientPubKey, \n                        bytes32 indexed provisionId,\n                        string cid,\n                        string dealId\n                        );\n\n  function proofOfProvision(address clientPubKey, bytes32 provisionId, string memory cid, string memory dealId) public {\n    Provision storage provision = provisions[clientPubKey][provisionId];\n    if (!provision.exist) {\n      revert(\"Provision does not exist\");\n    }\n\n    provision.cid = cid;\n    provision.dealId = dealId;\n    emit ProofOfProvision(clientPubKey, provisionId, cid, dealId);\n  }\n\n  function getProvision(address clientPubKey, bytes32 provisionId) public view returns (Provision memory) {\n    return provisions[clientPubKey][provisionId];\n  }\n}\n",
  "sourcePath": "/Users/stanbar/code/anonser/smartcontracts/contracts/AnonSer.sol",
  "compiler": {
    "name": "solc",
    "version": "0.8.17+commit.8df45f5f.Emscripten.clang"
  },
  "schemaVersion": "3.4.10",
  "updatedAt": "2022-11-08T11:10:55.027Z",
  "networkType": "ethereum",
  "devdoc": {
    "kind": "dev",
    "methods": {},
    "version": 1
  },
  "userdoc": {
    "kind": "user",
    "methods": {},
    "version": 1
  }
}